{
  "_format": "hh-sol-artifact-1",
  "contractName": "GitID",
  "sourceName": "contracts/gitid/gitid.sol",
  "abi": [
    {
      "inputs": [
        {
          "internalType": "string",
          "name": "_name",
          "type": "string"
        },
        {
          "internalType": "string",
          "name": "_symbol",
          "type": "string"
        },
        {
          "internalType": "string",
          "name": "_baseName",
          "type": "string"
        }
      ],
      "stateMutability": "nonpayable",
      "type": "constructor"
    },
    {
      "anonymous": false,
      "inputs": [
        {
          "indexed": true,
          "internalType": "address",
          "name": "owner",
          "type": "address"
        },
        {
          "indexed": true,
          "internalType": "address",
          "name": "approved",
          "type": "address"
        },
        {
          "indexed": true,
          "internalType": "uint256",
          "name": "tokenId",
          "type": "uint256"
        }
      ],
      "name": "Approval",
      "type": "event"
    },
    {
      "anonymous": false,
      "inputs": [
        {
          "indexed": true,
          "internalType": "address",
          "name": "owner",
          "type": "address"
        },
        {
          "indexed": true,
          "internalType": "address",
          "name": "operator",
          "type": "address"
        },
        {
          "indexed": false,
          "internalType": "bool",
          "name": "approved",
          "type": "bool"
        }
      ],
      "name": "ApprovalForAll",
      "type": "event"
    },
    {
      "anonymous": false,
      "inputs": [
        {
          "indexed": true,
          "internalType": "address",
          "name": "minter",
          "type": "address"
        }
      ],
      "name": "MinterAdded",
      "type": "event"
    },
    {
      "anonymous": false,
      "inputs": [
        {
          "indexed": true,
          "internalType": "address",
          "name": "minter",
          "type": "address"
        }
      ],
      "name": "MinterRemoved",
      "type": "event"
    },
    {
      "anonymous": false,
      "inputs": [
        {
          "indexed": true,
          "internalType": "uint256",
          "name": "id",
          "type": "uint256"
        },
        {
          "indexed": true,
          "internalType": "address",
          "name": "owner",
          "type": "address"
        }
      ],
      "name": "NameRegistered",
      "type": "event"
    },
    {
      "anonymous": false,
      "inputs": [
        {
          "indexed": true,
          "internalType": "address",
          "name": "previousOwner",
          "type": "address"
        },
        {
          "indexed": true,
          "internalType": "address",
          "name": "newOwner",
          "type": "address"
        }
      ],
      "name": "OwnershipTransferred",
      "type": "event"
    },
    {
      "anonymous": false,
      "inputs": [
        {
          "indexed": true,
          "internalType": "address",
          "name": "from",
          "type": "address"
        },
        {
          "indexed": true,
          "internalType": "address",
          "name": "to",
          "type": "address"
        },
        {
          "indexed": true,
          "internalType": "uint256",
          "name": "tokenId",
          "type": "uint256"
        }
      ],
      "name": "Transfer",
      "type": "event"
    },
    {
      "inputs": [
        {
          "internalType": "address",
          "name": "minter",
          "type": "address"
        }
      ],
      "name": "addMinter",
      "outputs": [],
      "stateMutability": "nonpayable",
      "type": "function"
    },
    {
      "inputs": [
        {
          "internalType": "address",
          "name": "to",
          "type": "address"
        },
        {
          "internalType": "uint256",
          "name": "tokenId",
          "type": "uint256"
        }
      ],
      "name": "approve",
      "outputs": [],
      "stateMutability": "nonpayable",
      "type": "function"
    },
    {
      "inputs": [
        {
          "internalType": "address",
          "name": "owner",
          "type": "address"
        }
      ],
      "name": "balanceOf",
      "outputs": [
        {
          "internalType": "uint256",
          "name": "",
          "type": "uint256"
        }
      ],
      "stateMutability": "view",
      "type": "function"
    },
    {
      "inputs": [],
      "name": "baseName",
      "outputs": [
        {
          "internalType": "string",
          "name": "",
          "type": "string"
        }
      ],
      "stateMutability": "view",
      "type": "function"
    },
    {
      "inputs": [],
      "name": "baseURI",
      "outputs": [
        {
          "internalType": "string",
          "name": "",
          "type": "string"
        }
      ],
      "stateMutability": "view",
      "type": "function"
    },
    {
      "inputs": [
        {
          "internalType": "uint256",
          "name": "tokenId",
          "type": "uint256"
        }
      ],
      "name": "getApproved",
      "outputs": [
        {
          "internalType": "address",
          "name": "",
          "type": "address"
        }
      ],
      "stateMutability": "view",
      "type": "function"
    },
    {
      "inputs": [
        {
          "internalType": "uint256",
          "name": "tokenId",
          "type": "uint256"
        }
      ],
      "name": "getName",
      "outputs": [
        {
          "internalType": "string",
          "name": "",
          "type": "string"
        }
      ],
      "stateMutability": "view",
      "type": "function"
    },
    {
      "inputs": [
        {
          "internalType": "address",
          "name": "owner",
          "type": "address"
        },
        {
          "internalType": "address",
          "name": "operator",
          "type": "address"
        }
      ],
      "name": "isApprovedForAll",
      "outputs": [
        {
          "internalType": "bool",
          "name": "",
          "type": "bool"
        }
      ],
      "stateMutability": "view",
      "type": "function"
    },
    {
      "inputs": [
        {
          "internalType": "address",
          "name": "",
          "type": "address"
        }
      ],
      "name": "minters",
      "outputs": [
        {
          "internalType": "bool",
          "name": "",
          "type": "bool"
        }
      ],
      "stateMutability": "view",
      "type": "function"
    },
    {
      "inputs": [],
      "name": "name",
      "outputs": [
        {
          "internalType": "string",
          "name": "",
          "type": "string"
        }
      ],
      "stateMutability": "view",
      "type": "function"
    },
    {
      "inputs": [],
      "name": "owner",
      "outputs": [
        {
          "internalType": "address",
          "name": "",
          "type": "address"
        }
      ],
      "stateMutability": "view",
      "type": "function"
    },
    {
      "inputs": [
        {
          "internalType": "uint256",
          "name": "tokenId",
          "type": "uint256"
        }
      ],
      "name": "ownerOf",
      "outputs": [
        {
          "internalType": "address",
          "name": "",
          "type": "address"
        }
      ],
      "stateMutability": "view",
      "type": "function"
    },
    {
      "inputs": [
        {
          "internalType": "uint256",
          "name": "id",
          "type": "uint256"
        },
        {
          "internalType": "address",
          "name": "owner",
          "type": "address"
        }
      ],
      "name": "register",
      "outputs": [],
      "stateMutability": "nonpayable",
      "type": "function"
    },
    {
      "inputs": [
        {
          "internalType": "address",
          "name": "minter",
          "type": "address"
        }
      ],
      "name": "removeMinter",
      "outputs": [],
      "stateMutability": "nonpayable",
      "type": "function"
    },
    {
      "inputs": [],
      "name": "renounceOwnership",
      "outputs": [],
      "stateMutability": "nonpayable",
      "type": "function"
    },
    {
      "inputs": [
        {
          "internalType": "address",
          "name": "from",
          "type": "address"
        },
        {
          "internalType": "address",
          "name": "to",
          "type": "address"
        },
        {
          "internalType": "uint256",
          "name": "tokenId",
          "type": "uint256"
        }
      ],
      "name": "safeTransferFrom",
      "outputs": [],
      "stateMutability": "nonpayable",
      "type": "function"
    },
    {
      "inputs": [
        {
          "internalType": "address",
          "name": "from",
          "type": "address"
        },
        {
          "internalType": "address",
          "name": "to",
          "type": "address"
        },
        {
          "internalType": "uint256",
          "name": "tokenId",
          "type": "uint256"
        },
        {
          "internalType": "bytes",
          "name": "data",
          "type": "bytes"
        }
      ],
      "name": "safeTransferFrom",
      "outputs": [],
      "stateMutability": "nonpayable",
      "type": "function"
    },
    {
      "inputs": [
        {
          "internalType": "address",
          "name": "operator",
          "type": "address"
        },
        {
          "internalType": "bool",
          "name": "approved",
          "type": "bool"
        }
      ],
      "name": "setApprovalForAll",
      "outputs": [],
      "stateMutability": "nonpayable",
      "type": "function"
    },
    {
      "inputs": [
        {
          "internalType": "string",
          "name": "uri",
          "type": "string"
        }
      ],
      "name": "setBaseURI",
      "outputs": [],
      "stateMutability": "nonpayable",
      "type": "function"
    },
    {
      "inputs": [
        {
          "internalType": "bytes4",
          "name": "interfaceId",
          "type": "bytes4"
        }
      ],
      "name": "supportsInterface",
      "outputs": [
        {
          "internalType": "bool",
          "name": "",
          "type": "bool"
        }
      ],
      "stateMutability": "view",
      "type": "function"
    },
    {
      "inputs": [],
      "name": "symbol",
      "outputs": [
        {
          "internalType": "string",
          "name": "",
          "type": "string"
        }
      ],
      "stateMutability": "view",
      "type": "function"
    },
    {
      "inputs": [
        {
          "internalType": "uint256",
          "name": "index",
          "type": "uint256"
        }
      ],
      "name": "tokenByIndex",
      "outputs": [
        {
          "internalType": "uint256",
          "name": "",
          "type": "uint256"
        }
      ],
      "stateMutability": "view",
      "type": "function"
    },
    {
      "inputs": [
        {
          "internalType": "address",
          "name": "owner",
          "type": "address"
        },
        {
          "internalType": "uint256",
          "name": "index",
          "type": "uint256"
        }
      ],
      "name": "tokenOfOwnerByIndex",
      "outputs": [
        {
          "internalType": "uint256",
          "name": "",
          "type": "uint256"
        }
      ],
      "stateMutability": "view",
      "type": "function"
    },
    {
      "inputs": [
        {
          "internalType": "uint256",
          "name": "tokenId",
          "type": "uint256"
        }
      ],
      "name": "tokenURI",
      "outputs": [
        {
          "internalType": "string",
          "name": "",
          "type": "string"
        }
      ],
      "stateMutability": "view",
      "type": "function"
    },
    {
      "inputs": [],
      "name": "totalSupply",
      "outputs": [
        {
          "internalType": "uint256",
          "name": "",
          "type": "uint256"
        }
      ],
      "stateMutability": "view",
      "type": "function"
    },
    {
      "inputs": [
        {
          "internalType": "address",
          "name": "from",
          "type": "address"
        },
        {
          "internalType": "address",
          "name": "to",
          "type": "address"
        },
        {
          "internalType": "uint256",
          "name": "tokenId",
          "type": "uint256"
        }
      ],
      "name": "transferFrom",
      "outputs": [],
      "stateMutability": "nonpayable",
      "type": "function"
    },
    {
      "inputs": [
        {
          "internalType": "address",
          "name": "newOwner",
          "type": "address"
        }
      ],
      "name": "transferOwnership",
      "outputs": [],
      "stateMutability": "nonpayable",
      "type": "function"
    }
  ],
  "bytecode": "0x60806040523480156200001157600080fd5b506040516200270e3803806200270e833981016040819052620000349162000190565b828262000041336200007b565b60016200004f8382620002b0565b5060026200005e8282620002b0565b50600b91506200007190508282620002b0565b505050506200037c565b600080546001600160a01b038381166001600160a01b0319831681178455604051919092169283917f8be0079c531659141344cd1fd0a4f28419497f9722a3daafe3b4186f6b6457e09190a35050565b634e487b7160e01b600052604160045260246000fd5b600082601f830112620000f357600080fd5b81516001600160401b0380821115620001105762000110620000cb565b604051601f8301601f19908116603f011681019082821181831017156200013b576200013b620000cb565b816040528381526020925086838588010111156200015857600080fd5b600091505b838210156200017c57858201830151818301840152908201906200015d565b600093810190920192909252949350505050565b600080600060608486031215620001a657600080fd5b83516001600160401b0380821115620001be57600080fd5b620001cc87838801620000e1565b94506020860151915080821115620001e357600080fd5b620001f187838801620000e1565b935060408601519150808211156200020857600080fd5b506200021786828701620000e1565b9150509250925092565b600181811c908216806200023657607f821691505b6020821081036200025757634e487b7160e01b600052602260045260246000fd5b50919050565b601f821115620002ab57600081815260208120601f850160051c81016020861015620002865750805b601f850160051c820191505b81811015620002a75782815560010162000292565b5050505b505050565b81516001600160401b03811115620002cc57620002cc620000cb565b620002e481620002dd845462000221565b846200025d565b602080601f8311600181146200031c5760008415620003035750858301515b600019600386901b1c1916600185901b178555620002a7565b600085815260208120601f198616915b828110156200034d578886015182559484019460019091019084016200032c565b50858210156200036c5787850151600019600388901b60f8161c191681555b5050505050600190811b01905550565b612382806200038c6000396000f3fe608060405234801561001057600080fd5b50600436106101b95760003560e01c80636b8ff574116100f9578063a22cb46511610097578063dbbdf08311610071578063dbbdf08314610375578063e985e9c514610388578063f2fde38b146103c4578063f46eccc4146103d757600080fd5b8063a22cb4651461033c578063b88d4fde1461034f578063c87b56dd1461036257600080fd5b8063715018a6116100d3578063715018a6146103085780638da5cb5b1461031057806395d89b4114610321578063983b2d561461032957600080fd5b80636b8ff574146102da5780636c0360eb146102ed57806370a08231146102f557600080fd5b806323b872dd1161016657806342842e0e1161014057806342842e0e1461028e5780634f6ccce7146102a157806355f804b3146102b45780636352211e146102c757600080fd5b806323b872dd146102555780632f745c59146102685780633092afd51461027b57600080fd5b8063095ea7b311610197578063095ea7b314610226578063150306331461023b57806318160ddd1461024357600080fd5b806301ffc9a7146101be57806306fdde03146101e6578063081812fc146101fb575b600080fd5b6101d16101cc366004611c7a565b6103fa565b60405190151581526020015b60405180910390f35b6101ee610472565b6040516101dd9190611d05565b61020e610209366004611d18565b610504565b6040516001600160a01b0390911681526020016101dd565b610239610234366004611d4d565b61052b565b005b6101ee610661565b6009545b6040519081526020016101dd565b610239610263366004611d77565b6106ef565b610247610276366004611d4d565b610776565b610239610289366004611db3565b610821565b61023961029c366004611d77565b610890565b6102476102af366004611d18565b6108ab565b6102396102c2366004611dce565b61094f565b61020e6102d5366004611d18565b610964565b6101ee6102e8366004611d18565b6109c9565b6101ee610a6d565b610247610303366004611db3565b610a7a565b610239610b14565b6000546001600160a01b031661020e565b6101ee610b28565b610239610337366004611db3565b610b37565b61023961034a366004611e40565b610ba9565b61023961035d366004611eab565b610bb8565b6101ee610370366004611d18565b610c46565b610239610383366004611fa5565b610cb4565b6101d1610396366004611fd1565b6001600160a01b03918216600090815260066020908152604080832093909416825291909152205460ff1690565b6102396103d2366004611db3565b610cda565b6101d16103e5366004611db3565b600e6020526000908152604090205460ff1681565b60008061040683610d6a565b905080156104175750600192915050565b7f87f1629d000000000000000000000000000000000000000000000000000000007fffffffff000000000000000000000000000000000000000000000000000000008416016104695750600192915050565b50600092915050565b60606001805461048190611ffb565b80601f01602080910402602001604051908101604052809291908181526020018280546104ad90611ffb565b80156104fa5780601f106104cf576101008083540402835291602001916104fa565b820191906000526020600020905b8154815290600101906020018083116104dd57829003601f168201915b5050505050905090565b600061050f82610dc0565b506000908152600560205260409020546001600160a01b031690565b600061053682610964565b9050806001600160a01b0316836001600160a01b0316036105c45760405162461bcd60e51b815260206004820152602160248201527f4552433732313a20617070726f76616c20746f2063757272656e74206f776e6560448201527f720000000000000000000000000000000000000000000000000000000000000060648201526084015b60405180910390fd5b336001600160a01b03821614806105e057506105e08133610396565b6106525760405162461bcd60e51b815260206004820152603d60248201527f4552433732313a20617070726f76652063616c6c6572206973206e6f7420746f60448201527f6b656e206f776e6572206f7220617070726f76656420666f7220616c6c00000060648201526084016105bb565b61065c8383610e24565b505050565b600b805461066e90611ffb565b80601f016020809104026020016040519081016040528092919081815260200182805461069a90611ffb565b80156106e75780601f106106bc576101008083540402835291602001916106e7565b820191906000526020600020905b8154815290600101906020018083116106ca57829003601f168201915b505050505081565b6106f93382610eaa565b61076b5760405162461bcd60e51b815260206004820152602d60248201527f4552433732313a2063616c6c6572206973206e6f7420746f6b656e206f776e6560448201527f72206f7220617070726f7665640000000000000000000000000000000000000060648201526084016105bb565b61065c838383610f29565b600061078183610a7a565b82106107f55760405162461bcd60e51b815260206004820152602b60248201527f455243373231456e756d657261626c653a206f776e657220696e646578206f7560448201527f74206f6620626f756e647300000000000000000000000000000000000000000060648201526084016105bb565b506001600160a01b03821660009081526007602090815260408083208484529091529020545b92915050565b610829611195565b6001600160a01b0381166000818152600e602052604080822080547fffffffffffffffffffffffffffffffffffffffffffffffffffffffffffffff00169055517fe94479a9f7e1952cc78f2d6baab678adc1b772d936c6583def489e524cb666929190a250565b61065c83838360405180602001604052806000815250610bb8565b60006108b660095490565b821061092a5760405162461bcd60e51b815260206004820152602c60248201527f455243373231456e756d657261626c653a20676c6f62616c20696e646578206f60448201527f7574206f6620626f756e6473000000000000000000000000000000000000000060648201526084016105bb565b6009828154811061093d5761093d61204e565b90600052602060002001549050919050565b610957611195565b600c61065c8284836120cb565b6000818152600360205260408120546001600160a01b03168061081b5760405162461bcd60e51b815260206004820152601860248201527f4552433732313a20696e76616c696420746f6b656e204944000000000000000060448201526064016105bb565b6000818152600d60205260408120805460609291906109e790611ffb565b80601f0160208091040260200160405190810160405280929190818152602001828054610a1390611ffb565b8015610a605780601f10610a3557610100808354040283529160200191610a60565b820191906000526020600020905b815481529060010190602001808311610a4357829003601f168201915b5093979650505050505050565b600c805461066e90611ffb565b60006001600160a01b038216610af85760405162461bcd60e51b815260206004820152602960248201527f4552433732313a2061646472657373207a65726f206973206e6f74206120766160448201527f6c6964206f776e6572000000000000000000000000000000000000000000000060648201526084016105bb565b506001600160a01b031660009081526004602052604090205490565b610b1c611195565b610b2660006111ef565b565b60606002805461048190611ffb565b610b3f611195565b6001600160a01b0381166000818152600e602052604080822080547fffffffffffffffffffffffffffffffffffffffffffffffffffffffffffffff00166001179055517f6ae172837ea30b801fbfcdd4108aa1d5bf8ff775444fd70256b44e6bf3dfc3f69190a250565b610bb4338383611257565b5050565b610bc23383610eaa565b610c345760405162461bcd60e51b815260206004820152602d60248201527f4552433732313a2063616c6c6572206973206e6f7420746f6b656e206f776e6560448201527f72206f7220617070726f7665640000000000000000000000000000000000000060648201526084016105bb565b610c4084848484611343565b50505050565b6060610c5182610dc0565b6000610c5c836109c9565b90506000600c8054610c6d90611ffb565b905011610c895760405180602001604052806000815250610cad565b600c81604051602001610c9d9291906121e5565b6040516020818303038152906040525b9392505050565b336000908152600e602052604090205460ff16610cd057600080fd5b610bb482826113cc565b610ce2611195565b6001600160a01b038116610d5e5760405162461bcd60e51b815260206004820152602660248201527f4f776e61626c653a206e6577206f776e657220697320746865207a65726f206160448201527f646472657373000000000000000000000000000000000000000000000000000060648201526084016105bb565b610d67816111ef565b50565b60007fffffffff0000000000000000000000000000000000000000000000000000000082167f780e9d6300000000000000000000000000000000000000000000000000000000148061081b575061081b82611435565b6000818152600360205260409020546001600160a01b0316610d675760405162461bcd60e51b815260206004820152601860248201527f4552433732313a20696e76616c696420746f6b656e204944000000000000000060448201526064016105bb565b600081815260056020526040902080547fffffffffffffffffffffffff0000000000000000000000000000000000000000166001600160a01b0384169081179091558190610e7182610964565b6001600160a01b03167f8c5be1e5ebec7d5bd14f71427d1e84f3dd0314c0f7b2291e5b200ac8c7c3b92560405160405180910390a45050565b600080610eb683610964565b9050806001600160a01b0316846001600160a01b03161480610efd57506001600160a01b0380821660009081526006602090815260408083209388168352929052205460ff165b80610f215750836001600160a01b0316610f1684610504565b6001600160a01b0316145b949350505050565b826001600160a01b0316610f3c82610964565b6001600160a01b031614610fb85760405162461bcd60e51b815260206004820152602560248201527f4552433732313a207472616e736665722066726f6d20696e636f72726563742060448201527f6f776e657200000000000000000000000000000000000000000000000000000060648201526084016105bb565b6001600160a01b0382166110335760405162461bcd60e51b8152602060048201526024808201527f4552433732313a207472616e7366657220746f20746865207a65726f2061646460448201527f726573730000000000000000000000000000000000000000000000000000000060648201526084016105bb565b6110408383836001611518565b826001600160a01b031661105382610964565b6001600160a01b0316146110cf5760405162461bcd60e51b815260206004820152602560248201527f4552433732313a207472616e736665722066726f6d20696e636f72726563742060448201527f6f776e657200000000000000000000000000000000000000000000000000000060648201526084016105bb565b600081815260056020908152604080832080547fffffffffffffffffffffffff00000000000000000000000000000000000000009081169091556001600160a01b038781168086526004855283862080547fffffffffffffffffffffffffffffffffffffffffffffffffffffffffffffffff01905590871680865283862080546001019055868652600390945282852080549092168417909155905184937fddf252ad1be2c89b69c2b068fc378daa952ba7f163c4a11628f55a4df523b3ef91a4505050565b6000546001600160a01b03163314610b265760405162461bcd60e51b815260206004820181905260248201527f4f776e61626c653a2063616c6c6572206973206e6f7420746865206f776e657260448201526064016105bb565b600080546001600160a01b038381167fffffffffffffffffffffffff0000000000000000000000000000000000000000831681178455604051919092169283917f8be0079c531659141344cd1fd0a4f28419497f9722a3daafe3b4186f6b6457e09190a35050565b816001600160a01b0316836001600160a01b0316036112b85760405162461bcd60e51b815260206004820152601960248201527f4552433732313a20617070726f766520746f2063616c6c65720000000000000060448201526064016105bb565b6001600160a01b0383811660008181526006602090815260408083209487168084529482529182902080547fffffffffffffffffffffffffffffffffffffffffffffffffffffffffffffff001686151590811790915591519182527f17307eab39ab6107e8899845ad3d59bd9653f200f220920489ca2b5937696c31910160405180910390a3505050565b61134e848484610f29565b61135a84848484611537565b610c405760405162461bcd60e51b815260206004820152603260248201527f4552433732313a207472616e7366657220746f206e6f6e20455243373231526560448201527f63656976657220696d706c656d656e746572000000000000000000000000000060648201526084016105bb565b6000828152600360205260409020546001600160a01b0316156113f2576113f2826116f6565b6113fc81836117cf565b6040516001600160a01b0382169083907e834ad8d7a1d8421d149549c7292d11385f5a042a008771d26ffd2d76db6e7490600090a35050565b60007fffffffff0000000000000000000000000000000000000000000000000000000082167f80ac58cd0000000000000000000000000000000000000000000000000000000014806114c857507fffffffff0000000000000000000000000000000000000000000000000000000082167f5b5e139f00000000000000000000000000000000000000000000000000000000145b8061081b57507f01ffc9a7000000000000000000000000000000000000000000000000000000007fffffffff0000000000000000000000000000000000000000000000000000000083161461081b565b61152183610a7a565b1561152b57600080fd5b610c4084848484611980565b60006001600160a01b0384163b156116eb576040517f150b7a020000000000000000000000000000000000000000000000000000000081526001600160a01b0385169063150b7a029061159490339089908890889060040161228a565b6020604051808303816000875af19250505080156115ed575060408051601f3d9081017fffffffffffffffffffffffffffffffffffffffffffffffffffffffffffffffe01682019092526115ea918101906122c6565b60015b6116a0573d80801561161b576040519150601f19603f3d011682016040523d82523d6000602084013e611620565b606091505b5080516000036116985760405162461bcd60e51b815260206004820152603260248201527f4552433732313a207472616e7366657220746f206e6f6e20455243373231526560448201527f63656976657220696d706c656d656e746572000000000000000000000000000060648201526084016105bb565b805181602001fd5b7fffffffff00000000000000000000000000000000000000000000000000000000167f150b7a0200000000000000000000000000000000000000000000000000000000149050610f21565b506001949350505050565b600061170182610964565b9050611711816000846001611518565b61171a82610964565b600083815260056020908152604080832080547fffffffffffffffffffffffff00000000000000000000000000000000000000009081169091556001600160a01b0385168085526004845282852080547fffffffffffffffffffffffffffffffffffffffffffffffffffffffffffffffff0190558785526003909352818420805490911690555192935084927fddf252ad1be2c89b69c2b068fc378daa952ba7f163c4a11628f55a4df523b3ef908390a45050565b6001600160a01b0382166118255760405162461bcd60e51b815260206004820181905260248201527f4552433732313a206d696e7420746f20746865207a65726f206164647265737360448201526064016105bb565b6000818152600360205260409020546001600160a01b03161561188a5760405162461bcd60e51b815260206004820152601c60248201527f4552433732313a20746f6b656e20616c7265616479206d696e7465640000000060448201526064016105bb565b611898600083836001611518565b6000818152600360205260409020546001600160a01b0316156118fd5760405162461bcd60e51b815260206004820152601c60248201527f4552433732313a20746f6b656e20616c7265616479206d696e7465640000000060448201526064016105bb565b6001600160a01b038216600081815260046020908152604080832080546001019055848352600390915280822080547fffffffffffffffffffffffff0000000000000000000000000000000000000000168417905551839291907fddf252ad1be2c89b69c2b068fc378daa952ba7f163c4a11628f55a4df523b3ef908290a45050565b60018111156119f75760405162461bcd60e51b815260206004820152603560248201527f455243373231456e756d657261626c653a20636f6e736563757469766520747260448201527f616e7366657273206e6f7420737570706f72746564000000000000000000000060648201526084016105bb565b816001600160a01b038516611a5357611a4e81600980546000838152600a60205260408120829055600182018355919091527f6e1540171b6c0c960b71a7020d9f60077f6af931a8bbf590da0223dacf75c7af0155565b611a76565b836001600160a01b0316856001600160a01b031614611a7657611a768582611abc565b6001600160a01b038416611a9257611a8d81611b59565b611ab5565b846001600160a01b0316846001600160a01b031614611ab557611ab58482611c08565b5050505050565b60006001611ac984610a7a565b611ad391906122e3565b600083815260086020526040902054909150808214611b26576001600160a01b03841660009081526007602090815260408083208584528252808320548484528184208190558352600890915290208190555b5060009182526008602090815260408084208490556001600160a01b039094168352600781528383209183525290812055565b600954600090611b6b906001906122e3565b6000838152600a602052604081205460098054939450909284908110611b9357611b9361204e565b906000526020600020015490508060098381548110611bb457611bb461204e565b6000918252602080832090910192909255828152600a90915260408082208490558582528120556009805480611bec57611bec61231d565b6001900381819060005260206000200160009055905550505050565b6000611c1383610a7a565b6001600160a01b039093166000908152600760209081526040808320868452825280832085905593825260089052919091209190915550565b7fffffffff0000000000000000000000000000000000000000000000000000000081168114610d6757600080fd5b600060208284031215611c8c57600080fd5b8135610cad81611c4c565b60005b83811015611cb2578181015183820152602001611c9a565b50506000910152565b60008151808452611cd3816020860160208601611c97565b601f017fffffffffffffffffffffffffffffffffffffffffffffffffffffffffffffffe0169290920160200192915050565b602081526000610cad6020830184611cbb565b600060208284031215611d2a57600080fd5b5035919050565b80356001600160a01b0381168114611d4857600080fd5b919050565b60008060408385031215611d6057600080fd5b611d6983611d31565b946020939093013593505050565b600080600060608486031215611d8c57600080fd5b611d9584611d31565b9250611da360208501611d31565b9150604084013590509250925092565b600060208284031215611dc557600080fd5b610cad82611d31565b60008060208385031215611de157600080fd5b823567ffffffffffffffff80821115611df957600080fd5b818501915085601f830112611e0d57600080fd5b813581811115611e1c57600080fd5b866020828501011115611e2e57600080fd5b60209290920196919550909350505050565b60008060408385031215611e5357600080fd5b611e5c83611d31565b915060208301358015158114611e7157600080fd5b809150509250929050565b7f4e487b7100000000000000000000000000000000000000000000000000000000600052604160045260246000fd5b60008060008060808587031215611ec157600080fd5b611eca85611d31565b9350611ed860208601611d31565b925060408501359150606085013567ffffffffffffffff80821115611efc57600080fd5b818701915087601f830112611f1057600080fd5b813581811115611f2257611f22611e7c565b604051601f82017fffffffffffffffffffffffffffffffffffffffffffffffffffffffffffffffe0908116603f01168101908382118183101715611f6857611f68611e7c565b816040528281528a6020848701011115611f8157600080fd5b82602086016020830137600060208483010152809550505050505092959194509250565b60008060408385031215611fb857600080fd5b82359150611fc860208401611d31565b90509250929050565b60008060408385031215611fe457600080fd5b611fed83611d31565b9150611fc860208401611d31565b600181811c9082168061200f57607f821691505b602082108103612048577f4e487b7100000000000000000000000000000000000000000000000000000000600052602260045260246000fd5b50919050565b7f4e487b7100000000000000000000000000000000000000000000000000000000600052603260045260246000fd5b601f82111561065c57600081815260208120601f850160051c810160208610156120a45750805b601f850160051c820191505b818110156120c3578281556001016120b0565b505050505050565b67ffffffffffffffff8311156120e3576120e3611e7c565b6120f7836120f18354611ffb565b8361207d565b6000601f84116001811461214957600085156121135750838201355b7fffffffffffffffffffffffffffffffffffffffffffffffffffffffffffffffff600387901b1c1916600186901b178355611ab5565b6000838152602090207fffffffffffffffffffffffffffffffffffffffffffffffffffffffffffffffe0861690835b828110156121985786850135825560209485019460019092019101612178565b50868210156121d3577fffffffffffffffffffffffffffffffffffffffffffffffffffffffffffffffff60f88860031b161c19848701351681555b505060018560011b0183555050505050565b60008084546121f381611ffb565b6001828116801561220b576001811461223e5761226d565b7fffffffffffffffffffffffffffffffffffffffffffffffffffffffffffffff008416875282151583028701945061226d565b8860005260208060002060005b858110156122645781548a82015290840190820161224b565b50505082870194505b505050508351612281818360208801611c97565b01949350505050565b60006001600160a01b038087168352808616602084015250836040830152608060608301526122bc6080830184611cbb565b9695505050505050565b6000602082840312156122d857600080fd5b8151610cad81611c4c565b8181038181111561081b577f4e487b7100000000000000000000000000000000000000000000000000000000600052601160045260246000fd5b7f4e487b7100000000000000000000000000000000000000000000000000000000600052603160045260246000fdfea26469706673582212207af1851adc644f2651eba4ffe876e84ee86cb9d578c0264eced5097b23c7357264736f6c63430008140033",
  "linkReferences": {},
  "deployedLinkReferences": {}
}