{
  "_format": "hh-sol-artifact-1",
  "contractName": "GitID",
  "sourceName": "contracts/gitid/gitid.sol",
  "abi": [
    {
      "inputs": [
        {
          "internalType": "string",
          "name": "_name",
          "type": "string"
        },
        {
          "internalType": "string",
          "name": "_symbol",
          "type": "string"
        },
        {
          "internalType": "string",
          "name": "_baseName",
          "type": "string"
        }
      ],
      "stateMutability": "nonpayable",
      "type": "constructor"
    },
    {
      "anonymous": false,
      "inputs": [
        {
          "indexed": true,
          "internalType": "address",
          "name": "owner",
          "type": "address"
        },
        {
          "indexed": true,
          "internalType": "address",
          "name": "approved",
          "type": "address"
        },
        {
          "indexed": true,
          "internalType": "uint256",
          "name": "tokenId",
          "type": "uint256"
        }
      ],
      "name": "Approval",
      "type": "event"
    },
    {
      "anonymous": false,
      "inputs": [
        {
          "indexed": true,
          "internalType": "address",
          "name": "owner",
          "type": "address"
        },
        {
          "indexed": true,
          "internalType": "address",
          "name": "operator",
          "type": "address"
        },
        {
          "indexed": false,
          "internalType": "bool",
          "name": "approved",
          "type": "bool"
        }
      ],
      "name": "ApprovalForAll",
      "type": "event"
    },
    {
      "anonymous": false,
      "inputs": [
        {
          "indexed": true,
          "internalType": "address",
          "name": "minter",
          "type": "address"
        }
      ],
      "name": "MinterAdded",
      "type": "event"
    },
    {
      "anonymous": false,
      "inputs": [
        {
          "indexed": true,
          "internalType": "address",
          "name": "minter",
          "type": "address"
        }
      ],
      "name": "MinterRemoved",
      "type": "event"
    },
    {
      "anonymous": false,
      "inputs": [
        {
          "indexed": true,
          "internalType": "uint256",
          "name": "id",
          "type": "uint256"
        },
        {
          "indexed": true,
          "internalType": "address",
          "name": "owner",
          "type": "address"
        }
      ],
      "name": "NameRegistered",
      "type": "event"
    },
    {
      "anonymous": false,
      "inputs": [
        {
          "indexed": true,
          "internalType": "address",
          "name": "previousOwner",
          "type": "address"
        },
        {
          "indexed": true,
          "internalType": "address",
          "name": "newOwner",
          "type": "address"
        }
      ],
      "name": "OwnershipTransferred",
      "type": "event"
    },
    {
      "anonymous": false,
      "inputs": [
        {
          "indexed": true,
          "internalType": "address",
          "name": "from",
          "type": "address"
        },
        {
          "indexed": true,
          "internalType": "address",
          "name": "to",
          "type": "address"
        },
        {
          "indexed": true,
          "internalType": "uint256",
          "name": "tokenId",
          "type": "uint256"
        }
      ],
      "name": "Transfer",
      "type": "event"
    },
    {
      "inputs": [
        {
          "internalType": "address",
          "name": "minter",
          "type": "address"
        }
      ],
      "name": "addMinter",
      "outputs": [],
      "stateMutability": "nonpayable",
      "type": "function"
    },
    {
      "inputs": [
        {
          "internalType": "address",
          "name": "to",
          "type": "address"
        },
        {
          "internalType": "uint256",
          "name": "tokenId",
          "type": "uint256"
        }
      ],
      "name": "approve",
      "outputs": [],
      "stateMutability": "nonpayable",
      "type": "function"
    },
    {
      "inputs": [
        {
          "internalType": "address",
          "name": "owner",
          "type": "address"
        }
      ],
      "name": "balanceOf",
      "outputs": [
        {
          "internalType": "uint256",
          "name": "",
          "type": "uint256"
        }
      ],
      "stateMutability": "view",
      "type": "function"
    },
    {
      "inputs": [],
      "name": "baseName",
      "outputs": [
        {
          "internalType": "string",
          "name": "",
          "type": "string"
        }
      ],
      "stateMutability": "view",
      "type": "function"
    },
    {
      "inputs": [],
      "name": "baseURI",
      "outputs": [
        {
          "internalType": "string",
          "name": "",
          "type": "string"
        }
      ],
      "stateMutability": "view",
      "type": "function"
    },
    {
      "inputs": [
        {
          "internalType": "uint256",
          "name": "tokenId",
          "type": "uint256"
        }
      ],
      "name": "getApproved",
      "outputs": [
        {
          "internalType": "address",
          "name": "",
          "type": "address"
        }
      ],
      "stateMutability": "view",
      "type": "function"
    },
    {
      "inputs": [
        {
          "internalType": "uint256",
          "name": "tokenId",
          "type": "uint256"
        }
      ],
      "name": "getName",
      "outputs": [
        {
          "internalType": "string",
          "name": "",
          "type": "string"
        }
      ],
      "stateMutability": "view",
      "type": "function"
    },
    {
      "inputs": [
        {
          "internalType": "string",
          "name": "username",
          "type": "string"
        }
      ],
      "name": "getTokenId",
      "outputs": [
        {
          "internalType": "uint256",
          "name": "",
          "type": "uint256"
        }
      ],
      "stateMutability": "pure",
      "type": "function"
    },
    {
      "inputs": [
        {
          "internalType": "address",
          "name": "owner",
          "type": "address"
        },
        {
          "internalType": "address",
          "name": "operator",
          "type": "address"
        }
      ],
      "name": "isApprovedForAll",
      "outputs": [
        {
          "internalType": "bool",
          "name": "",
          "type": "bool"
        }
      ],
      "stateMutability": "view",
      "type": "function"
    },
    {
      "inputs": [
        {
          "internalType": "address",
          "name": "",
          "type": "address"
        }
      ],
      "name": "minters",
      "outputs": [
        {
          "internalType": "bool",
          "name": "",
          "type": "bool"
        }
      ],
      "stateMutability": "view",
      "type": "function"
    },
    {
      "inputs": [],
      "name": "name",
      "outputs": [
        {
          "internalType": "string",
          "name": "",
          "type": "string"
        }
      ],
      "stateMutability": "view",
      "type": "function"
    },
    {
      "inputs": [
        {
          "internalType": "uint256",
          "name": "",
          "type": "uint256"
        }
      ],
      "name": "names",
      "outputs": [
        {
          "internalType": "string",
          "name": "",
          "type": "string"
        }
      ],
      "stateMutability": "view",
      "type": "function"
    },
    {
      "inputs": [],
      "name": "owner",
      "outputs": [
        {
          "internalType": "address",
          "name": "",
          "type": "address"
        }
      ],
      "stateMutability": "view",
      "type": "function"
    },
    {
      "inputs": [
        {
          "internalType": "uint256",
          "name": "tokenId",
          "type": "uint256"
        }
      ],
      "name": "ownerOf",
      "outputs": [
        {
          "internalType": "address",
          "name": "",
          "type": "address"
        }
      ],
      "stateMutability": "view",
      "type": "function"
    },
    {
      "inputs": [
        {
          "internalType": "uint256",
          "name": "id",
          "type": "uint256"
        },
        {
          "internalType": "string",
          "name": "name",
          "type": "string"
        },
        {
          "internalType": "address",
          "name": "owner",
          "type": "address"
        }
      ],
      "name": "register",
      "outputs": [],
      "stateMutability": "nonpayable",
      "type": "function"
    },
    {
      "inputs": [
        {
          "internalType": "address",
          "name": "minter",
          "type": "address"
        }
      ],
      "name": "removeMinter",
      "outputs": [],
      "stateMutability": "nonpayable",
      "type": "function"
    },
    {
      "inputs": [],
      "name": "renounceOwnership",
      "outputs": [],
      "stateMutability": "nonpayable",
      "type": "function"
    },
    {
      "inputs": [
        {
          "internalType": "address",
          "name": "from",
          "type": "address"
        },
        {
          "internalType": "address",
          "name": "to",
          "type": "address"
        },
        {
          "internalType": "uint256",
          "name": "tokenId",
          "type": "uint256"
        }
      ],
      "name": "safeTransferFrom",
      "outputs": [],
      "stateMutability": "nonpayable",
      "type": "function"
    },
    {
      "inputs": [
        {
          "internalType": "address",
          "name": "from",
          "type": "address"
        },
        {
          "internalType": "address",
          "name": "to",
          "type": "address"
        },
        {
          "internalType": "uint256",
          "name": "tokenId",
          "type": "uint256"
        },
        {
          "internalType": "bytes",
          "name": "data",
          "type": "bytes"
        }
      ],
      "name": "safeTransferFrom",
      "outputs": [],
      "stateMutability": "nonpayable",
      "type": "function"
    },
    {
      "inputs": [
        {
          "internalType": "address",
          "name": "operator",
          "type": "address"
        },
        {
          "internalType": "bool",
          "name": "approved",
          "type": "bool"
        }
      ],
      "name": "setApprovalForAll",
      "outputs": [],
      "stateMutability": "nonpayable",
      "type": "function"
    },
    {
      "inputs": [
        {
          "internalType": "string",
          "name": "uri",
          "type": "string"
        }
      ],
      "name": "setBaseURI",
      "outputs": [],
      "stateMutability": "nonpayable",
      "type": "function"
    },
    {
      "inputs": [
        {
          "internalType": "bytes4",
          "name": "interfaceId",
          "type": "bytes4"
        }
      ],
      "name": "supportsInterface",
      "outputs": [
        {
          "internalType": "bool",
          "name": "",
          "type": "bool"
        }
      ],
      "stateMutability": "view",
      "type": "function"
    },
    {
      "inputs": [],
      "name": "symbol",
      "outputs": [
        {
          "internalType": "string",
          "name": "",
          "type": "string"
        }
      ],
      "stateMutability": "view",
      "type": "function"
    },
    {
      "inputs": [
        {
          "internalType": "uint256",
          "name": "index",
          "type": "uint256"
        }
      ],
      "name": "tokenByIndex",
      "outputs": [
        {
          "internalType": "uint256",
          "name": "",
          "type": "uint256"
        }
      ],
      "stateMutability": "view",
      "type": "function"
    },
    {
      "inputs": [
        {
          "internalType": "address",
          "name": "owner",
          "type": "address"
        },
        {
          "internalType": "uint256",
          "name": "index",
          "type": "uint256"
        }
      ],
      "name": "tokenOfOwnerByIndex",
      "outputs": [
        {
          "internalType": "uint256",
          "name": "",
          "type": "uint256"
        }
      ],
      "stateMutability": "view",
      "type": "function"
    },
    {
      "inputs": [
        {
          "internalType": "uint256",
          "name": "tokenId",
          "type": "uint256"
        }
      ],
      "name": "tokenURI",
      "outputs": [
        {
          "internalType": "string",
          "name": "",
          "type": "string"
        }
      ],
      "stateMutability": "view",
      "type": "function"
    },
    {
      "inputs": [],
      "name": "totalSupply",
      "outputs": [
        {
          "internalType": "uint256",
          "name": "",
          "type": "uint256"
        }
      ],
      "stateMutability": "view",
      "type": "function"
    },
    {
      "inputs": [
        {
          "internalType": "address",
          "name": "from",
          "type": "address"
        },
        {
          "internalType": "address",
          "name": "to",
          "type": "address"
        },
        {
          "internalType": "uint256",
          "name": "tokenId",
          "type": "uint256"
        }
      ],
      "name": "transferFrom",
      "outputs": [],
      "stateMutability": "nonpayable",
      "type": "function"
    },
    {
      "inputs": [
        {
          "internalType": "address",
          "name": "newOwner",
          "type": "address"
        }
      ],
      "name": "transferOwnership",
      "outputs": [],
      "stateMutability": "nonpayable",
      "type": "function"
    }
  ],
  "bytecode": "0x60806040523480156200001157600080fd5b50604051620028a3380380620028a3833981016040819052620000349162000190565b828262000041336200007b565b60016200004f8382620002b0565b5060026200005e8282620002b0565b50600b91506200007190508282620002b0565b505050506200037c565b600080546001600160a01b038381166001600160a01b0319831681178455604051919092169283917f8be0079c531659141344cd1fd0a4f28419497f9722a3daafe3b4186f6b6457e09190a35050565b634e487b7160e01b600052604160045260246000fd5b600082601f830112620000f357600080fd5b81516001600160401b0380821115620001105762000110620000cb565b604051601f8301601f19908116603f011681019082821181831017156200013b576200013b620000cb565b816040528381526020925086838588010111156200015857600080fd5b600091505b838210156200017c57858201830151818301840152908201906200015d565b600093810190920192909252949350505050565b600080600060608486031215620001a657600080fd5b83516001600160401b0380821115620001be57600080fd5b620001cc87838801620000e1565b94506020860151915080821115620001e357600080fd5b620001f187838801620000e1565b935060408601519150808211156200020857600080fd5b506200021786828701620000e1565b9150509250925092565b600181811c908216806200023657607f821691505b6020821081036200025757634e487b7160e01b600052602260045260246000fd5b50919050565b601f821115620002ab57600081815260208120601f850160051c81016020861015620002865750805b601f850160051c820191505b81811015620002a75782815560010162000292565b5050505b505050565b81516001600160401b03811115620002cc57620002cc620000cb565b620002e481620002dd845462000221565b846200025d565b602080601f8311600181146200031c5760008415620003035750858301515b600019600386901b1c1916600185901b178555620002a7565b600085815260208120601f198616915b828110156200034d578886015182559484019460019091019084016200032c565b50858210156200036c5787850151600019600388901b60f8161c191681555b5050505050600190811b01905550565b612517806200038c6000396000f3fe608060405234801561001057600080fd5b50600436106101cf5760003560e01c8063601219b71161010457806395d89b41116100a2578063c87b56dd11610071578063c87b56dd146103b7578063e985e9c5146103ca578063f2fde38b14610406578063f46eccc41461041957600080fd5b806395d89b4114610376578063983b2d561461037e578063a22cb46514610391578063b88d4fde146103a457600080fd5b80636c0360eb116100de5780636c0360eb1461034257806370a082311461034a578063715018a61461035d5780638da5cb5b1461036557600080fd5b8063601219b7146103095780636352211e1461031c5780636b8ff5741461032f57600080fd5b806323b872dd1161017157806342842e0e1161014b57806342842e0e146102bd5780634622ab03146102d05780634f6ccce7146102e357806355f804b3146102f657600080fd5b806323b872dd146102845780632f745c59146102975780633092afd5146102aa57600080fd5b8063095ea7b3116101ad578063095ea7b31461023c578063150306331461025157806318160ddd146102595780631e7663bc1461026b57600080fd5b806301ffc9a7146101d457806306fdde03146101fc578063081812fc14610211575b600080fd5b6101e76101e2366004611c56565b61043c565b60405190151581526020015b60405180910390f35b6102046104b4565b6040516101f39190611ce1565b61022461021f366004611cf4565b610546565b6040516001600160a01b0390911681526020016101f3565b61024f61024a366004611d29565b61056d565b005b6102046106a3565b6009545b6040519081526020016101f3565b61025d610279366004611e36565b805160209091012090565b61024f610292366004611e6b565b610731565b61025d6102a5366004611d29565b6107b8565b61024f6102b8366004611ea7565b610863565b61024f6102cb366004611e6b565b6108d2565b6102046102de366004611cf4565b6108ed565b61025d6102f1366004611cf4565b610906565b61024f610304366004611ec2565b6109aa565b61024f610317366004611f34565b6109bf565b61022461032a366004611cf4565b6109e6565b61020461033d366004611cf4565b610a4b565b610204610aef565b61025d610358366004611ea7565b610afc565b61024f610b96565b6000546001600160a01b0316610224565b610204610baa565b61024f61038c366004611ea7565b610bb9565b61024f61039f366004611f8b565b610c2b565b61024f6103b2366004611fc7565b610c3a565b6102046103c5366004611cf4565b610cc8565b6101e76103d8366004612043565b6001600160a01b03918216600090815260066020908152604080832093909416825291909152205460ff1690565b61024f610414366004611ea7565b610d36565b6101e7610427366004611ea7565b600e6020526000908152604090205460ff1681565b60008061044883610dc6565b905080156104595750600192915050565b7f87f1629d000000000000000000000000000000000000000000000000000000007fffffffff000000000000000000000000000000000000000000000000000000008416016104ab5750600192915050565b50600092915050565b6060600180546104c390612076565b80601f01602080910402602001604051908101604052809291908181526020018280546104ef90612076565b801561053c5780601f106105115761010080835404028352916020019161053c565b820191906000526020600020905b81548152906001019060200180831161051f57829003601f168201915b5050505050905090565b600061055182610e1c565b506000908152600560205260409020546001600160a01b031690565b6000610578826109e6565b9050806001600160a01b0316836001600160a01b0316036106065760405162461bcd60e51b815260206004820152602160248201527f4552433732313a20617070726f76616c20746f2063757272656e74206f776e6560448201527f720000000000000000000000000000000000000000000000000000000000000060648201526084015b60405180910390fd5b336001600160a01b0382161480610622575061062281336103d8565b6106945760405162461bcd60e51b815260206004820152603d60248201527f4552433732313a20617070726f76652063616c6c6572206973206e6f7420746f60448201527f6b656e206f776e6572206f7220617070726f76656420666f7220616c6c00000060648201526084016105fd565b61069e8383610e80565b505050565b600b80546106b090612076565b80601f01602080910402602001604051908101604052809291908181526020018280546106dc90612076565b80156107295780601f106106fe57610100808354040283529160200191610729565b820191906000526020600020905b81548152906001019060200180831161070c57829003601f168201915b505050505081565b61073b3382610f06565b6107ad5760405162461bcd60e51b815260206004820152602d60248201527f4552433732313a2063616c6c6572206973206e6f7420746f6b656e206f776e6560448201527f72206f7220617070726f7665640000000000000000000000000000000000000060648201526084016105fd565b61069e838383610f85565b60006107c383610afc565b82106108375760405162461bcd60e51b815260206004820152602b60248201527f455243373231456e756d657261626c653a206f776e657220696e646578206f7560448201527f74206f6620626f756e647300000000000000000000000000000000000000000060648201526084016105fd565b506001600160a01b03821660009081526007602090815260408083208484529091529020545b92915050565b61086b6111f1565b6001600160a01b0381166000818152600e602052604080822080547fffffffffffffffffffffffffffffffffffffffffffffffffffffffffffffff00169055517fe94479a9f7e1952cc78f2d6baab678adc1b772d936c6583def489e524cb666929190a250565b61069e83838360405180602001604052806000815250610c3a565b600d60205260009081526040902080546106b090612076565b600061091160095490565b82106109855760405162461bcd60e51b815260206004820152602c60248201527f455243373231456e756d657261626c653a20676c6f62616c20696e646578206f60448201527f7574206f6620626f756e6473000000000000000000000000000000000000000060648201526084016105fd565b60098281548110610998576109986120c9565b90600052602060002001549050919050565b6109b26111f1565b600c61069e828483612146565b336000908152600e602052604090205460ff166109db57600080fd5b61069e83838361124b565b6000818152600360205260408120546001600160a01b03168061085d5760405162461bcd60e51b815260206004820152601860248201527f4552433732313a20696e76616c696420746f6b656e204944000000000000000060448201526064016105fd565b6000818152600d6020526040812080546060929190610a6990612076565b80601f0160208091040260200160405190810160405280929190818152602001828054610a9590612076565b8015610ae25780601f10610ab757610100808354040283529160200191610ae2565b820191906000526020600020905b815481529060010190602001808311610ac557829003601f168201915b5093979650505050505050565b600c80546106b090612076565b60006001600160a01b038216610b7a5760405162461bcd60e51b815260206004820152602960248201527f4552433732313a2061646472657373207a65726f206973206e6f74206120766160448201527f6c6964206f776e6572000000000000000000000000000000000000000000000060648201526084016105fd565b506001600160a01b031660009081526004602052604090205490565b610b9e6111f1565b610ba8600061130d565b565b6060600280546104c390612076565b610bc16111f1565b6001600160a01b0381166000818152600e602052604080822080547fffffffffffffffffffffffffffffffffffffffffffffffffffffffffffffff00166001179055517f6ae172837ea30b801fbfcdd4108aa1d5bf8ff775444fd70256b44e6bf3dfc3f69190a250565b610c36338383611375565b5050565b610c443383610f06565b610cb65760405162461bcd60e51b815260206004820152602d60248201527f4552433732313a2063616c6c6572206973206e6f7420746f6b656e206f776e6560448201527f72206f7220617070726f7665640000000000000000000000000000000000000060648201526084016105fd565b610cc284848484611461565b50505050565b6060610cd382610e1c565b6000610cde83610a4b565b90506000600c8054610cef90612076565b905011610d0b5760405180602001604052806000815250610d2f565b600c81604051602001610d1f929190612260565b6040516020818303038152906040525b9392505050565b610d3e6111f1565b6001600160a01b038116610dba5760405162461bcd60e51b815260206004820152602660248201527f4f776e61626c653a206e6577206f776e657220697320746865207a65726f206160448201527f646472657373000000000000000000000000000000000000000000000000000060648201526084016105fd565b610dc38161130d565b50565b60007fffffffff0000000000000000000000000000000000000000000000000000000082167f780e9d6300000000000000000000000000000000000000000000000000000000148061085d575061085d826114ea565b6000818152600360205260409020546001600160a01b0316610dc35760405162461bcd60e51b815260206004820152601860248201527f4552433732313a20696e76616c696420746f6b656e204944000000000000000060448201526064016105fd565b600081815260056020526040902080547fffffffffffffffffffffffff0000000000000000000000000000000000000000166001600160a01b0384169081179091558190610ecd826109e6565b6001600160a01b03167f8c5be1e5ebec7d5bd14f71427d1e84f3dd0314c0f7b2291e5b200ac8c7c3b92560405160405180910390a45050565b600080610f12836109e6565b9050806001600160a01b0316846001600160a01b03161480610f5957506001600160a01b0380821660009081526006602090815260408083209388168352929052205460ff165b80610f7d5750836001600160a01b0316610f7284610546565b6001600160a01b0316145b949350505050565b826001600160a01b0316610f98826109e6565b6001600160a01b0316146110145760405162461bcd60e51b815260206004820152602560248201527f4552433732313a207472616e736665722066726f6d20696e636f72726563742060448201527f6f776e657200000000000000000000000000000000000000000000000000000060648201526084016105fd565b6001600160a01b03821661108f5760405162461bcd60e51b8152602060048201526024808201527f4552433732313a207472616e7366657220746f20746865207a65726f2061646460448201527f726573730000000000000000000000000000000000000000000000000000000060648201526084016105fd565b61109c83838360016115cd565b826001600160a01b03166110af826109e6565b6001600160a01b03161461112b5760405162461bcd60e51b815260206004820152602560248201527f4552433732313a207472616e736665722066726f6d20696e636f72726563742060448201527f6f776e657200000000000000000000000000000000000000000000000000000060648201526084016105fd565b600081815260056020908152604080832080547fffffffffffffffffffffffff00000000000000000000000000000000000000009081169091556001600160a01b038781168086526004855283862080547fffffffffffffffffffffffffffffffffffffffffffffffffffffffffffffffff01905590871680865283862080546001019055868652600390945282852080549092168417909155905184937fddf252ad1be2c89b69c2b068fc378daa952ba7f163c4a11628f55a4df523b3ef91a4505050565b6000546001600160a01b03163314610ba85760405162461bcd60e51b815260206004820181905260248201527f4f776e61626c653a2063616c6c6572206973206e6f7420746865206f776e657260448201526064016105fd565b6000838152600360205260409020546001600160a01b0316156112b05760405162461bcd60e51b815260206004820152601260248201527f416c72656164792072656769737465726564000000000000000000000000000060448201526064016105fd565b6112ba81846115ec565b6000838152600d602052604090206112d28382612305565b506040516001600160a01b0382169084907e834ad8d7a1d8421d149549c7292d11385f5a042a008771d26ffd2d76db6e7490600090a3505050565b600080546001600160a01b038381167fffffffffffffffffffffffff0000000000000000000000000000000000000000831681178455604051919092169283917f8be0079c531659141344cd1fd0a4f28419497f9722a3daafe3b4186f6b6457e09190a35050565b816001600160a01b0316836001600160a01b0316036113d65760405162461bcd60e51b815260206004820152601960248201527f4552433732313a20617070726f766520746f2063616c6c65720000000000000060448201526064016105fd565b6001600160a01b0383811660008181526006602090815260408083209487168084529482529182902080547fffffffffffffffffffffffffffffffffffffffffffffffffffffffffffffff001686151590811790915591519182527f17307eab39ab6107e8899845ad3d59bd9653f200f220920489ca2b5937696c31910160405180910390a3505050565b61146c848484610f85565b6114788484848461179d565b610cc25760405162461bcd60e51b815260206004820152603260248201527f4552433732313a207472616e7366657220746f206e6f6e20455243373231526560448201527f63656976657220696d706c656d656e746572000000000000000000000000000060648201526084016105fd565b60007fffffffff0000000000000000000000000000000000000000000000000000000082167f80ac58cd00000000000000000000000000000000000000000000000000000000148061157d57507fffffffff0000000000000000000000000000000000000000000000000000000082167f5b5e139f00000000000000000000000000000000000000000000000000000000145b8061085d57507f01ffc9a7000000000000000000000000000000000000000000000000000000007fffffffff0000000000000000000000000000000000000000000000000000000083161461085d565b6115d683610afc565b156115e057600080fd5b610cc28484848461195c565b6001600160a01b0382166116425760405162461bcd60e51b815260206004820181905260248201527f4552433732313a206d696e7420746f20746865207a65726f206164647265737360448201526064016105fd565b6000818152600360205260409020546001600160a01b0316156116a75760405162461bcd60e51b815260206004820152601c60248201527f4552433732313a20746f6b656e20616c7265616479206d696e7465640000000060448201526064016105fd565b6116b56000838360016115cd565b6000818152600360205260409020546001600160a01b03161561171a5760405162461bcd60e51b815260206004820152601c60248201527f4552433732313a20746f6b656e20616c7265616479206d696e7465640000000060448201526064016105fd565b6001600160a01b038216600081815260046020908152604080832080546001019055848352600390915280822080547fffffffffffffffffffffffff0000000000000000000000000000000000000000168417905551839291907fddf252ad1be2c89b69c2b068fc378daa952ba7f163c4a11628f55a4df523b3ef908290a45050565b60006001600160a01b0384163b15611951576040517f150b7a020000000000000000000000000000000000000000000000000000000081526001600160a01b0385169063150b7a02906117fa90339089908890889060040161241f565b6020604051808303816000875af1925050508015611853575060408051601f3d9081017fffffffffffffffffffffffffffffffffffffffffffffffffffffffffffffffe01682019092526118509181019061245b565b60015b611906573d808015611881576040519150601f19603f3d011682016040523d82523d6000602084013e611886565b606091505b5080516000036118fe5760405162461bcd60e51b815260206004820152603260248201527f4552433732313a207472616e7366657220746f206e6f6e20455243373231526560448201527f63656976657220696d706c656d656e746572000000000000000000000000000060648201526084016105fd565b805181602001fd5b7fffffffff00000000000000000000000000000000000000000000000000000000167f150b7a0200000000000000000000000000000000000000000000000000000000149050610f7d565b506001949350505050565b60018111156119d35760405162461bcd60e51b815260206004820152603560248201527f455243373231456e756d657261626c653a20636f6e736563757469766520747260448201527f616e7366657273206e6f7420737570706f72746564000000000000000000000060648201526084016105fd565b816001600160a01b038516611a2f57611a2a81600980546000838152600a60205260408120829055600182018355919091527f6e1540171b6c0c960b71a7020d9f60077f6af931a8bbf590da0223dacf75c7af0155565b611a52565b836001600160a01b0316856001600160a01b031614611a5257611a528582611a98565b6001600160a01b038416611a6e57611a6981611b35565b611a91565b846001600160a01b0316846001600160a01b031614611a9157611a918482611be4565b5050505050565b60006001611aa584610afc565b611aaf9190612478565b600083815260086020526040902054909150808214611b02576001600160a01b03841660009081526007602090815260408083208584528252808320548484528184208190558352600890915290208190555b5060009182526008602090815260408084208490556001600160a01b039094168352600781528383209183525290812055565b600954600090611b4790600190612478565b6000838152600a602052604081205460098054939450909284908110611b6f57611b6f6120c9565b906000526020600020015490508060098381548110611b9057611b906120c9565b6000918252602080832090910192909255828152600a90915260408082208490558582528120556009805480611bc857611bc86124b2565b6001900381819060005260206000200160009055905550505050565b6000611bef83610afc565b6001600160a01b039093166000908152600760209081526040808320868452825280832085905593825260089052919091209190915550565b7fffffffff0000000000000000000000000000000000000000000000000000000081168114610dc357600080fd5b600060208284031215611c6857600080fd5b8135610d2f81611c28565b60005b83811015611c8e578181015183820152602001611c76565b50506000910152565b60008151808452611caf816020860160208601611c73565b601f017fffffffffffffffffffffffffffffffffffffffffffffffffffffffffffffffe0169290920160200192915050565b602081526000610d2f6020830184611c97565b600060208284031215611d0657600080fd5b5035919050565b80356001600160a01b0381168114611d2457600080fd5b919050565b60008060408385031215611d3c57600080fd5b611d4583611d0d565b946020939093013593505050565b7f4e487b7100000000000000000000000000000000000000000000000000000000600052604160045260246000fd5b600067ffffffffffffffff80841115611d9d57611d9d611d53565b604051601f85017fffffffffffffffffffffffffffffffffffffffffffffffffffffffffffffffe0908116603f01168101908282118183101715611de357611de3611d53565b81604052809350858152868686011115611dfc57600080fd5b858560208301376000602087830101525050509392505050565b600082601f830112611e2757600080fd5b610d2f83833560208501611d82565b600060208284031215611e4857600080fd5b813567ffffffffffffffff811115611e5f57600080fd5b610f7d84828501611e16565b600080600060608486031215611e8057600080fd5b611e8984611d0d565b9250611e9760208501611d0d565b9150604084013590509250925092565b600060208284031215611eb957600080fd5b610d2f82611d0d565b60008060208385031215611ed557600080fd5b823567ffffffffffffffff80821115611eed57600080fd5b818501915085601f830112611f0157600080fd5b813581811115611f1057600080fd5b866020828501011115611f2257600080fd5b60209290920196919550909350505050565b600080600060608486031215611f4957600080fd5b83359250602084013567ffffffffffffffff811115611f6757600080fd5b611f7386828701611e16565b925050611f8260408501611d0d565b90509250925092565b60008060408385031215611f9e57600080fd5b611fa783611d0d565b915060208301358015158114611fbc57600080fd5b809150509250929050565b60008060008060808587031215611fdd57600080fd5b611fe685611d0d565b9350611ff460208601611d0d565b925060408501359150606085013567ffffffffffffffff81111561201757600080fd5b8501601f8101871361202857600080fd5b61203787823560208401611d82565b91505092959194509250565b6000806040838503121561205657600080fd5b61205f83611d0d565b915061206d60208401611d0d565b90509250929050565b600181811c9082168061208a57607f821691505b6020821081036120c3577f4e487b7100000000000000000000000000000000000000000000000000000000600052602260045260246000fd5b50919050565b7f4e487b7100000000000000000000000000000000000000000000000000000000600052603260045260246000fd5b601f82111561069e57600081815260208120601f850160051c8101602086101561211f5750805b601f850160051c820191505b8181101561213e5782815560010161212b565b505050505050565b67ffffffffffffffff83111561215e5761215e611d53565b6121728361216c8354612076565b836120f8565b6000601f8411600181146121c4576000851561218e5750838201355b7fffffffffffffffffffffffffffffffffffffffffffffffffffffffffffffffff600387901b1c1916600186901b178355611a91565b6000838152602090207fffffffffffffffffffffffffffffffffffffffffffffffffffffffffffffffe0861690835b8281101561221357868501358255602094850194600190920191016121f3565b508682101561224e577fffffffffffffffffffffffffffffffffffffffffffffffffffffffffffffffff60f88860031b161c19848701351681555b505060018560011b0183555050505050565b600080845461226e81612076565b6001828116801561228657600181146122b9576122e8565b7fffffffffffffffffffffffffffffffffffffffffffffffffffffffffffffff00841687528215158302870194506122e8565b8860005260208060002060005b858110156122df5781548a8201529084019082016122c6565b50505082870194505b5050505083516122fc818360208801611c73565b01949350505050565b815167ffffffffffffffff81111561231f5761231f611d53565b6123338161232d8454612076565b846120f8565b602080601f83116001811461238657600084156123505750858301515b7fffffffffffffffffffffffffffffffffffffffffffffffffffffffffffffffff600386901b1c1916600185901b17855561213e565b6000858152602081207fffffffffffffffffffffffffffffffffffffffffffffffffffffffffffffffe08616915b828110156123d3578886015182559484019460019091019084016123b4565b508582101561240f57878501517fffffffffffffffffffffffffffffffffffffffffffffffffffffffffffffffff600388901b60f8161c191681555b5050505050600190811b01905550565b60006001600160a01b038087168352808616602084015250836040830152608060608301526124516080830184611c97565b9695505050505050565b60006020828403121561246d57600080fd5b8151610d2f81611c28565b8181038181111561085d577f4e487b7100000000000000000000000000000000000000000000000000000000600052601160045260246000fd5b7f4e487b7100000000000000000000000000000000000000000000000000000000600052603160045260246000fdfea26469706673582212200d7d7d1f56bf255a9cb4d276265c096797d3658b32fbfa306b6b551ea9cc46b064736f6c63430008140033",
  "linkReferences": {},
  "deployedLinkReferences": {}
}