{
  "_format": "hh-sol-artifact-1",
  "contractName": "Minter",
  "sourceName": "contracts/gitid/Minter.sol",
  "abi": [
    {
      "inputs": [
        {
          "internalType": "contract GitID",
          "name": "_gitID",
          "type": "address"
        },
        {
          "internalType": "address",
          "name": "_signer",
          "type": "address"
        }
      ],
      "stateMutability": "nonpayable",
      "type": "constructor"
    },
    {
      "anonymous": false,
      "inputs": [
        {
          "indexed": false,
          "internalType": "string",
          "name": "name",
          "type": "string"
        },
        {
          "indexed": true,
          "internalType": "address",
          "name": "owner",
          "type": "address"
        },
        {
          "indexed": false,
          "internalType": "uint256",
          "name": "cost",
          "type": "uint256"
        }
      ],
      "name": "NameRegistered",
      "type": "event"
    },
    {
      "anonymous": false,
      "inputs": [
        {
          "indexed": true,
          "internalType": "address",
          "name": "previousOwner",
          "type": "address"
        },
        {
          "indexed": true,
          "internalType": "address",
          "name": "newOwner",
          "type": "address"
        }
      ],
      "name": "OwnershipTransferred",
      "type": "event"
    },
    {
      "anonymous": false,
      "inputs": [
        {
          "indexed": true,
          "internalType": "address",
          "name": "newSigner",
          "type": "address"
        }
      ],
      "name": "SignerUpdated",
      "type": "event"
    },
    {
      "inputs": [
        {
          "internalType": "string",
          "name": "username",
          "type": "string"
        },
        {
          "internalType": "uint256",
          "name": "price",
          "type": "uint256"
        }
      ],
      "name": "getMessageHash",
      "outputs": [
        {
          "internalType": "bytes32",
          "name": "",
          "type": "bytes32"
        }
      ],
      "stateMutability": "pure",
      "type": "function"
    },
    {
      "inputs": [],
      "name": "owner",
      "outputs": [
        {
          "internalType": "address",
          "name": "",
          "type": "address"
        }
      ],
      "stateMutability": "view",
      "type": "function"
    },
    {
      "inputs": [
        {
          "internalType": "string",
          "name": "username",
          "type": "string"
        },
        {
          "internalType": "bytes",
          "name": "signature",
          "type": "bytes"
        },
        {
          "internalType": "address",
          "name": "owner",
          "type": "address"
        }
      ],
      "name": "register",
      "outputs": [],
      "stateMutability": "payable",
      "type": "function"
    },
    {
      "inputs": [],
      "name": "renounceOwnership",
      "outputs": [],
      "stateMutability": "nonpayable",
      "type": "function"
    },
    {
      "inputs": [],
      "name": "signer",
      "outputs": [
        {
          "internalType": "address",
          "name": "",
          "type": "address"
        }
      ],
      "stateMutability": "view",
      "type": "function"
    },
    {
      "inputs": [
        {
          "internalType": "address",
          "name": "newOwner",
          "type": "address"
        }
      ],
      "name": "transferOwnership",
      "outputs": [],
      "stateMutability": "nonpayable",
      "type": "function"
    },
    {
      "inputs": [
        {
          "internalType": "address",
          "name": "newSigner",
          "type": "address"
        }
      ],
      "name": "updateSigner",
      "outputs": [],
      "stateMutability": "nonpayable",
      "type": "function"
    },
    {
      "inputs": [],
      "name": "withdraw",
      "outputs": [],
      "stateMutability": "nonpayable",
      "type": "function"
    }
  ],
  "bytecode": "0x608060405234801561001057600080fd5b50604051610ed9380380610ed983398101604081905261002f916100d1565b61003833610069565b600180546001600160a01b039384166001600160a01b0319918216179091556002805492909316911617905561010b565b600080546001600160a01b038381166001600160a01b0319831681178455604051919092169283917f8be0079c531659141344cd1fd0a4f28419497f9722a3daafe3b4186f6b6457e09190a35050565b6001600160a01b03811681146100ce57600080fd5b50565b600080604083850312156100e457600080fd5b82516100ef816100b9565b6020840151909250610100816100b9565b809150509250929050565b610dbf8061011a6000396000f3fe60806040526004361061007b5760003560e01c80638da5cb5b1161004e5780638da5cb5b14610116578063a7ecd37e14610141578063d4aa691614610161578063f2fde38b1461018f57600080fd5b8063238ac933146100805780633ccfd60b146100d757806359d7eb8d146100ee578063715018a614610101575b600080fd5b34801561008c57600080fd5b506002546100ad9073ffffffffffffffffffffffffffffffffffffffff1681565b60405173ffffffffffffffffffffffffffffffffffffffff90911681526020015b60405180910390f35b3480156100e357600080fd5b506100ec6101af565b005b6100ec6100fc366004610aa0565b6101e6565b34801561010d57600080fd5b506100ec61048f565b34801561012257600080fd5b5060005473ffffffffffffffffffffffffffffffffffffffff166100ad565b34801561014d57600080fd5b506100ec61015c366004610b21565b6104a3565b34801561016d57600080fd5b5061018161017c366004610b72565b61051a565b6040519081526020016100ce565b34801561019b57600080fd5b506100ec6101aa366004610b21565b61054d565b6101b7610601565b60405133904780156108fc02916000818181858888f193505050501580156101e3573d6000803e3d6000fd5b50565b6000349050600061022e87878080601f01602080910402602001604051908101604052809392919081815260200183838082843760009201919091525086925061051a915050565b9050600061027d86868080601f01602080910402602001604051908101604052809392919081815260200183838082843760009201919091525061027792508691506106829050565b906106b5565b60025490915073ffffffffffffffffffffffffffffffffffffffff808316911614610309576040517f08c379a000000000000000000000000000000000000000000000000000000000815260206004820152601160248201527f496e76616c6964207369676e617475726500000000000000000000000000000060448201526064015b60405180910390fd5b6001546040517f1e7663bc00000000000000000000000000000000000000000000000000000000815260009173ffffffffffffffffffffffffffffffffffffffff1690631e7663bc90610362908c908c90600401610c8e565b602060405180830381865afa15801561037f573d6000803e3d6000fd5b505050506040513d601f19601f820116820180604052508101906103a39190610caa565b6001546040517f601219b700000000000000000000000000000000000000000000000000000000815291925073ffffffffffffffffffffffffffffffffffffffff169063601219b7906104009084908d908d908b90600401610cc3565b600060405180830381600087803b15801561041a57600080fd5b505af115801561042e573d6000803e3d6000fd5b505050508473ffffffffffffffffffffffffffffffffffffffff167f8a168ef997ae6a1723ef504e6a0205acfe336ccb522561e95accebadde414b878a8a8760405161047c93929190610d04565b60405180910390a2505050505050505050565b610497610601565b6104a160006106d9565b565b6104ab610601565b600280547fffffffffffffffffffffffff00000000000000000000000000000000000000001673ffffffffffffffffffffffffffffffffffffffff83169081179091556040517f5553331329228fbd4123164423717a4a7539f6dfa1c3279a923b98fd681a6c7390600090a250565b6000828260405160200161052f929190610d28565b60405160208183030381529060405280519060200120905092915050565b610555610601565b73ffffffffffffffffffffffffffffffffffffffff81166105f8576040517f08c379a000000000000000000000000000000000000000000000000000000000815260206004820152602660248201527f4f776e61626c653a206e6577206f776e657220697320746865207a65726f206160448201527f64647265737300000000000000000000000000000000000000000000000000006064820152608401610300565b6101e3816106d9565b60005473ffffffffffffffffffffffffffffffffffffffff1633146104a1576040517f08c379a000000000000000000000000000000000000000000000000000000000815260206004820181905260248201527f4f776e61626c653a2063616c6c6572206973206e6f7420746865206f776e65726044820152606401610300565b7f19457468657265756d205369676e6564204d6573736167653a0a3332000000006000908152601c91909152603c902090565b60008060006106c4858561074e565b915091506106d181610793565b509392505050565b6000805473ffffffffffffffffffffffffffffffffffffffff8381167fffffffffffffffffffffffff0000000000000000000000000000000000000000831681178455604051919092169283917f8be0079c531659141344cd1fd0a4f28419497f9722a3daafe3b4186f6b6457e09190a35050565b60008082516041036107845760208301516040840151606085015160001a61077887828585610946565b9450945050505061078c565b506000905060025b9250929050565b60008160048111156107a7576107a7610d5a565b036107af5750565b60018160048111156107c3576107c3610d5a565b0361082a576040517f08c379a000000000000000000000000000000000000000000000000000000000815260206004820152601860248201527f45434453413a20696e76616c6964207369676e617475726500000000000000006044820152606401610300565b600281600481111561083e5761083e610d5a565b036108a5576040517f08c379a000000000000000000000000000000000000000000000000000000000815260206004820152601f60248201527f45434453413a20696e76616c6964207369676e6174757265206c656e677468006044820152606401610300565b60038160048111156108b9576108b9610d5a565b036101e3576040517f08c379a000000000000000000000000000000000000000000000000000000000815260206004820152602260248201527f45434453413a20696e76616c6964207369676e6174757265202773272076616c60448201527f75650000000000000000000000000000000000000000000000000000000000006064820152608401610300565b6000807f7fffffffffffffffffffffffffffffff5d576e7357a4501ddfe92f46681b20a083111561097d5750600090506003610a2c565b6040805160008082526020820180845289905260ff881692820192909252606081018690526080810185905260019060a0016020604051602081039080840390855afa1580156109d1573d6000803e3d6000fd5b50506040517fffffffffffffffffffffffffffffffffffffffffffffffffffffffffffffffe0015191505073ffffffffffffffffffffffffffffffffffffffff8116610a2557600060019250925050610a2c565b9150600090505b94509492505050565b60008083601f840112610a4757600080fd5b50813567ffffffffffffffff811115610a5f57600080fd5b60208301915083602082850101111561078c57600080fd5b803573ffffffffffffffffffffffffffffffffffffffff81168114610a9b57600080fd5b919050565b600080600080600060608688031215610ab857600080fd5b853567ffffffffffffffff80821115610ad057600080fd5b610adc89838a01610a35565b90975095506020880135915080821115610af557600080fd5b50610b0288828901610a35565b9094509250610b15905060408701610a77565b90509295509295909350565b600060208284031215610b3357600080fd5b610b3c82610a77565b9392505050565b7f4e487b7100000000000000000000000000000000000000000000000000000000600052604160045260246000fd5b60008060408385031215610b8557600080fd5b823567ffffffffffffffff80821115610b9d57600080fd5b818501915085601f830112610bb157600080fd5b813581811115610bc357610bc3610b43565b604051601f82017fffffffffffffffffffffffffffffffffffffffffffffffffffffffffffffffe0908116603f01168101908382118183101715610c0957610c09610b43565b81604052828152886020848701011115610c2257600080fd5b826020860160208301376000602093820184015298969091013596505050505050565b8183528181602085013750600060208284010152600060207fffffffffffffffffffffffffffffffffffffffffffffffffffffffffffffffe0601f840116840101905092915050565b602081526000610ca2602083018486610c45565b949350505050565b600060208284031215610cbc57600080fd5b5051919050565b848152606060208201526000610cdd606083018587610c45565b905073ffffffffffffffffffffffffffffffffffffffff8316604083015295945050505050565b604081526000610d18604083018587610c45565b9050826020830152949350505050565b6000835160005b81811015610d495760208187018101518583015201610d2f565b509190910191825250602001919050565b7f4e487b7100000000000000000000000000000000000000000000000000000000600052602160045260246000fdfea26469706673582212208e285c7bbc171b151fb7e99f70210b10a4f53c307e00d13ea3cfc442e6f1ee8764736f6c63430008140033",
  "linkReferences": {},
  "deployedLinkReferences": {}
}