{"abi":[{"type":"constructor","inputs":[],"stateMutability":"nonpayable"},{"type":"function","name":"approve","inputs":[{"name":"to","type":"address","internalType":"address"},{"name":"tokenId","type":"uint256","internalType":"uint256"}],"outputs":[],"stateMutability":"nonpayable"},{"type":"function","name":"balanceOf","inputs":[{"name":"owner","type":"address","internalType":"address"}],"outputs":[{"name":"","type":"uint256","internalType":"uint256"}],"stateMutability":"view"},{"type":"function","name":"baseURI","inputs":[],"outputs":[{"name":"","type":"string","internalType":"string"}],"stateMutability":"view"},{"type":"function","name":"burn","inputs":[{"name":"username","type":"string","internalType":"string"}],"outputs":[],"stateMutability":"nonpayable"},{"type":"function","name":"controller","inputs":[],"outputs":[{"name":"","type":"address","internalType":"address"}],"stateMutability":"view"},{"type":"function","name":"getApproved","inputs":[{"name":"tokenId","type":"uint256","internalType":"uint256"}],"outputs":[{"name":"","type":"address","internalType":"address"}],"stateMutability":"view"},{"type":"function","name":"getOwnerByTokenId","inputs":[{"name":"tokenId","type":"uint256","internalType":"uint256"}],"outputs":[{"name":"","type":"address","internalType":"address"}],"stateMutability":"view"},{"type":"function","name":"getOwnerByUsername","inputs":[{"name":"username","type":"string","internalType":"string"}],"outputs":[{"name":"","type":"address","internalType":"address"}],"stateMutability":"view"},{"type":"function","name":"getTokenIdByAddress","inputs":[{"name":"owner","type":"address","internalType":"address"}],"outputs":[{"name":"","type":"uint256","internalType":"uint256"}],"stateMutability":"view"},{"type":"function","name":"getTokenIdByUsername","inputs":[{"name":"username","type":"string","internalType":"string"}],"outputs":[{"name":"","type":"uint256","internalType":"uint256"}],"stateMutability":"pure"},{"type":"function","name":"getUsernameByAddress","inputs":[{"name":"owner","type":"address","internalType":"address"}],"outputs":[{"name":"","type":"string","internalType":"string"}],"stateMutability":"view"},{"type":"function","name":"getUsernameByTokenId","inputs":[{"name":"tokenId","type":"uint256","internalType":"uint256"}],"outputs":[{"name":"","type":"string","internalType":"string"}],"stateMutability":"view"},{"type":"function","name":"isApprovedForAll","inputs":[{"name":"owner","type":"address","internalType":"address"},{"name":"operator","type":"address","internalType":"address"}],"outputs":[{"name":"","type":"bool","internalType":"bool"}],"stateMutability":"view"},{"type":"function","name":"mint","inputs":[{"name":"to","type":"address","internalType":"address"},{"name":"username","type":"string","internalType":"string"}],"outputs":[],"stateMutability":"nonpayable"},{"type":"function","name":"name","inputs":[],"outputs":[{"name":"","type":"string","internalType":"string"}],"stateMutability":"view"},{"type":"function","name":"owner","inputs":[],"outputs":[{"name":"","type":"address","internalType":"address"}],"stateMutability":"view"},{"type":"function","name":"ownerOf","inputs":[{"name":"tokenId","type":"uint256","internalType":"uint256"}],"outputs":[{"name":"","type":"address","internalType":"address"}],"stateMutability":"view"},{"type":"function","name":"renounceOwnership","inputs":[],"outputs":[],"stateMutability":"nonpayable"},{"type":"function","name":"safeTransferFrom","inputs":[{"name":"from","type":"address","internalType":"address"},{"name":"to","type":"address","internalType":"address"},{"name":"tokenId","type":"uint256","internalType":"uint256"}],"outputs":[],"stateMutability":"nonpayable"},{"type":"function","name":"safeTransferFrom","inputs":[{"name":"from","type":"address","internalType":"address"},{"name":"to","type":"address","internalType":"address"},{"name":"tokenId","type":"uint256","internalType":"uint256"},{"name":"data","type":"bytes","internalType":"bytes"}],"outputs":[],"stateMutability":"nonpayable"},{"type":"function","name":"setApprovalForAll","inputs":[{"name":"operator","type":"address","internalType":"address"},{"name":"approved","type":"bool","internalType":"bool"}],"outputs":[],"stateMutability":"nonpayable"},{"type":"function","name":"setBaseURI","inputs":[{"name":"baseURI_","type":"string","internalType":"string"}],"outputs":[],"stateMutability":"nonpayable"},{"type":"function","name":"setController","inputs":[{"name":"controller_","type":"address","internalType":"address"}],"outputs":[],"stateMutability":"nonpayable"},{"type":"function","name":"supportsInterface","inputs":[{"name":"interfaceId","type":"bytes4","internalType":"bytes4"}],"outputs":[{"name":"","type":"bool","internalType":"bool"}],"stateMutability":"view"},{"type":"function","name":"symbol","inputs":[],"outputs":[{"name":"","type":"string","internalType":"string"}],"stateMutability":"view"},{"type":"function","name":"tokenURI","inputs":[{"name":"tokenId","type":"uint256","internalType":"uint256"}],"outputs":[{"name":"","type":"string","internalType":"string"}],"stateMutability":"view"},{"type":"function","name":"transferFrom","inputs":[{"name":"from","type":"address","internalType":"address"},{"name":"to","type":"address","internalType":"address"},{"name":"tokenId","type":"uint256","internalType":"uint256"}],"outputs":[],"stateMutability":"nonpayable"},{"type":"function","name":"transferOwnership","inputs":[{"name":"newOwner","type":"address","internalType":"address"}],"outputs":[],"stateMutability":"nonpayable"},{"type":"event","name":"Approval","inputs":[{"name":"owner","type":"address","indexed":true,"internalType":"address"},{"name":"approved","type":"address","indexed":true,"internalType":"address"},{"name":"tokenId","type":"uint256","indexed":true,"internalType":"uint256"}],"anonymous":false},{"type":"event","name":"ApprovalForAll","inputs":[{"name":"owner","type":"address","indexed":true,"internalType":"address"},{"name":"operator","type":"address","indexed":true,"internalType":"address"},{"name":"approved","type":"bool","indexed":false,"internalType":"bool"}],"anonymous":false},{"type":"event","name":"Burned","inputs":[{"name":"from","type":"address","indexed":true,"internalType":"address"},{"name":"tokenId","type":"uint256","indexed":true,"internalType":"uint256"},{"name":"username","type":"string","indexed":false,"internalType":"string"}],"anonymous":false},{"type":"event","name":"Minted","inputs":[{"name":"to","type":"address","indexed":true,"internalType":"address"},{"name":"tokenId","type":"uint256","indexed":true,"internalType":"uint256"},{"name":"username","type":"string","indexed":false,"internalType":"string"}],"anonymous":false},{"type":"event","name":"OwnershipTransferred","inputs":[{"name":"previousOwner","type":"address","indexed":true,"internalType":"address"},{"name":"newOwner","type":"address","indexed":true,"internalType":"address"}],"anonymous":false},{"type":"event","name":"Transfer","inputs":[{"name":"from","type":"address","indexed":true,"internalType":"address"},{"name":"to","type":"address","indexed":true,"internalType":"address"},{"name":"tokenId","type":"uint256","indexed":true,"internalType":"uint256"}],"anonymous":false},{"type":"error","name":"ERC721IncorrectOwner","inputs":[{"name":"sender","type":"address","internalType":"address"},{"name":"tokenId","type":"uint256","internalType":"uint256"},{"name":"owner","type":"address","internalType":"address"}]},{"type":"error","name":"ERC721InsufficientApproval","inputs":[{"name":"operator","type":"address","internalType":"address"},{"name":"tokenId","type":"uint256","internalType":"uint256"}]},{"type":"error","name":"ERC721InvalidApprover","inputs":[{"name":"approver","type":"address","internalType":"address"}]},{"type":"error","name":"ERC721InvalidOperator","inputs":[{"name":"operator","type":"address","internalType":"address"}]},{"type":"error","name":"ERC721InvalidOwner","inputs":[{"name":"owner","type":"address","internalType":"address"}]},{"type":"error","name":"ERC721InvalidReceiver","inputs":[{"name":"receiver","type":"address","internalType":"address"}]},{"type":"error","name":"ERC721InvalidSender","inputs":[{"name":"sender","type":"address","internalType":"address"}]},{"type":"error","name":"ERC721NonexistentToken","inputs":[{"name":"tokenId","type":"uint256","internalType":"uint256"}]},{"type":"error","name":"OwnableInvalidOwner","inputs":[{"name":"owner","type":"address","internalType":"address"}]},{"type":"error","name":"OwnableUnauthorizedAccount","inputs":[{"name":"account","type":"address","internalType":"address"}]}],"bytecode":{"object":"0x60806040523480156200001157600080fd5b50336040518060400160405280600581526020016411da5d125160da1b8152506040518060400160405280600581526020016411d255125160da1b8152508160009081620000609190620001ac565b5060016200006f8282620001ac565b5050506001600160a01b038116620000a157604051631e4fbdf760e01b81526000600482015260240160405180910390fd5b620000ac81620000b3565b5062000278565b600680546001600160a01b038381166001600160a01b0319831681179093556040519116919082907f8be0079c531659141344cd1fd0a4f28419497f9722a3daafe3b4186f6b6457e090600090a35050565b634e487b7160e01b600052604160045260246000fd5b600181811c908216806200013057607f821691505b6020821081036200015157634e487b7160e01b600052602260045260246000fd5b50919050565b601f821115620001a7576000816000526020600020601f850160051c81016020861015620001825750805b601f850160051c820191505b81811015620001a3578281556001016200018e565b5050505b505050565b81516001600160401b03811115620001c857620001c862000105565b620001e081620001d984546200011b565b8462000157565b602080601f831160018114620002185760008415620001ff5750858301515b600019600386901b1c1916600185901b178555620001a3565b600085815260208120601f198616915b82811015620002495788860151825594840194600190910190840162000228565b5085821015620002685787850151600019600388901b60f8161c191681555b5050505050600190811b01905550565b61198280620002886000396000f3fe608060405234801561001057600080fd5b50600436106101c45760003560e01c80638da5cb5b116100f9578063c87b56dd11610097578063e985e9c511610071578063e985e9c5146103ad578063ed1a998d146103c0578063f2fde38b146103d3578063f77c4791146103e657600080fd5b8063c87b56dd14610374578063d0def52114610387578063dafa1d2d1461039a57600080fd5b806398e7f04c116100d357806398e7f04c14610328578063a22cb4651461033b578063b88d4fde1461034e578063c0cfa0dc1461036157600080fd5b80638da5cb5b146102fc57806392eefe9b1461030d57806395d89b411461032057600080fd5b806342842e0e116101665780636c0360eb116101405780636c0360eb146102c657806370a08231146102ce578063715018a6146102e15780638cbab7e4146102e957600080fd5b806342842e0e1461028d57806355f804b3146102a05780636352211e146102b357600080fd5b8063095ea7b3116101a2578063095ea7b3146102315780631833eaa1146102465780631c91cd381461026757806323b872dd1461027a57600080fd5b806301ffc9a7146101c957806306fdde03146101f1578063081812fc14610206575b600080fd5b6101dc6101d73660046113bd565b6103f9565b60405190151581526020015b60405180910390f35b6101f961044b565b6040516101e8919061142a565b61021961021436600461143d565b6104dd565b6040516001600160a01b0390911681526020016101e8565b61024461023f366004611472565b610506565b005b610259610254366004611548565b610515565b6040519081526020016101e8565b610219610275366004611548565b610546565b61024461028836600461157d565b610564565b61024461029b36600461157d565b6105f4565b6102446102ae366004611548565b610614565b6102196102c136600461143d565b610628565b6101f9610633565b6102596102dc3660046115b9565b6106c1565b610244610709565b6102596102f73660046115b9565b61071d565b6006546001600160a01b0316610219565b61024461031b3660046115b9565b6107c8565b6101f96107f2565b61021961033636600461143d565b610801565b6102446103493660046115d4565b61080c565b61024461035c366004611610565b610817565b6101f961036f36600461143d565b61082f565b6101f961038236600461143d565b6108e9565b61024461039536600461168c565b610957565b6102446103a8366004611548565b610ae7565b6101dc6103bb3660046116da565b610bc1565b6101f96103ce3660046115b9565b610bef565b6102446103e13660046115b9565b610c9b565b600854610219906001600160a01b031681565b60006001600160e01b031982166380ac58cd60e01b148061042a57506001600160e01b03198216635b5e139f60e01b145b8061044557506301ffc9a760e01b6001600160e01b03198316145b92915050565b60606000805461045a9061170d565b80601f01602080910402602001604051908101604052809291908181526020018280546104869061170d565b80156104d35780601f106104a8576101008083540402835291602001916104d3565b820191906000526020600020905b8154815290600101906020018083116104b657829003601f168201915b5050505050905090565b60006104e882610cd9565b506000828152600460205260409020546001600160a01b0316610445565b610511828233610d12565b5050565b6000816040516020016105289190611747565b60408051601f19818403018152919052805160209091012092915050565b60008061055283610515565b905061055d81610628565b9392505050565b6001600160a01b03821661059357604051633250574960e11b8152600060048201526024015b60405180910390fd5b60006105a0838333610d1f565b9050836001600160a01b0316816001600160a01b0316146105ee576040516364283d7b60e01b81526001600160a01b038086166004830152602482018490528216604482015260640161058a565b50505050565b61060f83838360405180602001604052806000815250610817565b505050565b61061c610daf565b600961051182826117ab565b600061044582610cd9565b600980546106409061170d565b80601f016020809104026020016040519081016040528092919081815260200182805461066c9061170d565b80156106b95780601f1061068e576101008083540402835291602001916106b9565b820191906000526020600020905b81548152906001019060200180831161069c57829003601f168201915b505050505081565b60006001600160a01b0382166106ed576040516322718ad960e21b81526000600482015260240161058a565b506001600160a01b031660009081526003602052604090205490565b610711610daf565b61071b6000610ddc565b565b6001600160a01b0381166000908152600760205260408120805461044591906107459061170d565b80601f01602080910402602001604051908101604052809291908181526020018280546107719061170d565b80156107be5780601f10610793576101008083540402835291602001916107be565b820191906000526020600020905b8154815290600101906020018083116107a157829003601f168201915b5050505050610515565b6107d0610daf565b600880546001600160a01b0319166001600160a01b0392909216919091179055565b60606001805461045a9061170d565b600061044582610628565b610511338383610e2e565b610822848484610564565b6105ee3385858585610ec5565b6060600061083c83610628565b6001600160a01b03811660009081526007602052604090208054919250906108639061170d565b80601f016020809104026020016040519081016040528092919081815260200182805461088f9061170d565b80156108dc5780601f106108b1576101008083540402835291602001916108dc565b820191906000526020600020905b8154815290600101906020018083116108bf57829003601f168201915b5050505050915050919050565b60606108f482610cd9565b5060006109008361082f565b90506000600980546109119061170d565b90501161092d576040518060200160405280600081525061055d565b60098160405160200161094192919061186b565b6040516020818303038152906040529392505050565b6008546001600160a01b031633146109b15760405162461bcd60e51b815260206004820152601c60248201527f43616c6c6572206973206e6f742074686520636f6e74726f6c6c657200000000604482015260640161058a565b6109ba826106c1565b15610a075760405162461bcd60e51b815260206004820152601b60248201527f4164647265737320616c72656164792068617320612047697449440000000000604482015260640161058a565b6000610a1282610515565b6000818152600260205260409020549091506001600160a01b031615610a735760405162461bcd60e51b8152602060048201526016602482015275151bdad95b925108185b1c9958591e481b5a5b9d195960521b604482015260640161058a565b6001600160a01b0383166000908152600760205260409020610a9583826117ab565b50610aa08382610ff0565b80836001600160a01b03167fe7cd4ce7f2a465edc730269a1305e8a48bad821e8fb7e152ec413829c01a53c484604051610ada919061142a565b60405180910390a3505050565b6008546001600160a01b03163314610b415760405162461bcd60e51b815260206004820152601c60248201527f43616c6c6572206973206e6f742074686520636f6e74726f6c6c657200000000604482015260640161058a565b6000610b4c82610515565b90506000610b5982610628565b6001600160a01b0381166000908152600760205260408120919250610b7e9190611359565b610b8782611055565b81816001600160a01b03167f0bd10d08cdd688ae27d8149d34aea2ddb78c6e0116355640cf1af79a2c9ab39485604051610ada919061142a565b6001600160a01b03918216600090815260056020908152604080832093909416825291909152205460ff1690565b6001600160a01b0381166000908152600760205260409020805460609190610c169061170d565b80601f0160208091040260200160405190810160405280929190818152602001828054610c429061170d565b8015610c8f5780601f10610c6457610100808354040283529160200191610c8f565b820191906000526020600020905b815481529060010190602001808311610c7257829003601f168201915b50505050509050919050565b610ca3610daf565b6001600160a01b038116610ccd57604051631e4fbdf760e01b81526000600482015260240161058a565b610cd681610ddc565b50565b6000818152600260205260408120546001600160a01b03168061044557604051637e27328960e01b81526004810184905260240161058a565b61060f8383836001611090565b6000828152600260205260408120546001600160a01b03168015801590610d4e57506001600160a01b03851615155b15610d9b5760405162461bcd60e51b815260206004820152601a60248201527f536f756c626f756e643a205472616e73666572206661696c6564000000000000604482015260640161058a565b610da6858585611196565b95945050505050565b6006546001600160a01b0316331461071b5760405163118cdaa760e01b815233600482015260240161058a565b600680546001600160a01b038381166001600160a01b0319831681179093556040519116919082907f8be0079c531659141344cd1fd0a4f28419497f9722a3daafe3b4186f6b6457e090600090a35050565b6001600160a01b038216610e6057604051630b61174360e31b81526001600160a01b038316600482015260240161058a565b6001600160a01b03838116600081815260056020908152604080832094871680845294825291829020805460ff191686151590811790915591519182527f17307eab39ab6107e8899845ad3d59bd9653f200f220920489ca2b5937696c319101610ada565b6001600160a01b0383163b15610fe957604051630a85bd0160e11b81526001600160a01b0384169063150b7a0290610f079088908890879087906004016118f2565b6020604051808303816000875af1925050508015610f42575060408051601f3d908101601f19168201909252610f3f9181019061192f565b60015b610fab573d808015610f70576040519150601f19603f3d011682016040523d82523d6000602084013e610f75565b606091505b508051600003610fa357604051633250574960e11b81526001600160a01b038516600482015260240161058a565b805181602001fd5b6001600160e01b03198116630a85bd0160e11b14610fe757604051633250574960e11b81526001600160a01b038516600482015260240161058a565b505b5050505050565b6001600160a01b03821661101a57604051633250574960e11b81526000600482015260240161058a565b600061102883836000610d1f565b90506001600160a01b0381161561060f576040516339e3563760e11b81526000600482015260240161058a565b60006110646000836000610d1f565b90506001600160a01b03811661051157604051637e27328960e01b81526004810183905260240161058a565b80806110a457506001600160a01b03821615155b156111665760006110b484610cd9565b90506001600160a01b038316158015906110e05750826001600160a01b0316816001600160a01b031614155b80156110f357506110f18184610bc1565b155b1561111c5760405163a9fbf51f60e01b81526001600160a01b038416600482015260240161058a565b81156111645783856001600160a01b0316826001600160a01b03167f8c5be1e5ebec7d5bd14f71427d1e84f3dd0314c0f7b2291e5b200ac8c7c3b92560405160405180910390a45b505b5050600090815260046020526040902080546001600160a01b0319166001600160a01b0392909216919091179055565b6000828152600260205260408120546001600160a01b03908116908316156111c3576111c381848661128f565b6001600160a01b03811615611201576111e0600085600080611090565b6001600160a01b038116600090815260036020526040902080546000190190555b6001600160a01b03851615611230576001600160a01b0385166000908152600360205260409020805460010190555b60008481526002602052604080822080546001600160a01b0319166001600160a01b0389811691821790925591518793918516917fddf252ad1be2c89b69c2b068fc378daa952ba7f163c4a11628f55a4df523b3ef91a4949350505050565b61129a8383836112f3565b61060f576001600160a01b0383166112c857604051637e27328960e01b81526004810182905260240161058a565b60405163177e802f60e01b81526001600160a01b03831660048201526024810182905260440161058a565b60006001600160a01b038316158015906113515750826001600160a01b0316846001600160a01b0316148061132d575061132d8484610bc1565b8061135157506000828152600460205260409020546001600160a01b038481169116145b949350505050565b5080546113659061170d565b6000825580601f10611375575050565b601f016020900490600052602060002090810190610cd691905b808211156113a3576000815560010161138f565b5090565b6001600160e01b031981168114610cd657600080fd5b6000602082840312156113cf57600080fd5b813561055d816113a7565b60005b838110156113f55781810151838201526020016113dd565b50506000910152565b600081518084526114168160208601602086016113da565b601f01601f19169290920160200192915050565b60208152600061055d60208301846113fe565b60006020828403121561144f57600080fd5b5035919050565b80356001600160a01b038116811461146d57600080fd5b919050565b6000806040838503121561148557600080fd5b61148e83611456565b946020939093013593505050565b634e487b7160e01b600052604160045260246000fd5b600067ffffffffffffffff808411156114cd576114cd61149c565b604051601f8501601f19908116603f011681019082821181831017156114f5576114f561149c565b8160405280935085815286868601111561150e57600080fd5b858560208301376000602087830101525050509392505050565b600082601f83011261153957600080fd5b61055d838335602085016114b2565b60006020828403121561155a57600080fd5b813567ffffffffffffffff81111561157157600080fd5b61135184828501611528565b60008060006060848603121561159257600080fd5b61159b84611456565b92506115a960208501611456565b9150604084013590509250925092565b6000602082840312156115cb57600080fd5b61055d82611456565b600080604083850312156115e757600080fd5b6115f083611456565b91506020830135801515811461160557600080fd5b809150509250929050565b6000806000806080858703121561162657600080fd5b61162f85611456565b935061163d60208601611456565b925060408501359150606085013567ffffffffffffffff81111561166057600080fd5b8501601f8101871361167157600080fd5b611680878235602084016114b2565b91505092959194509250565b6000806040838503121561169f57600080fd5b6116a883611456565b9150602083013567ffffffffffffffff8111156116c457600080fd5b6116d085828601611528565b9150509250929050565b600080604083850312156116ed57600080fd5b6116f683611456565b915061170460208401611456565b90509250929050565b600181811c9082168061172157607f821691505b60208210810361174157634e487b7160e01b600052602260045260246000fd5b50919050565b600082516117598184602087016113da565b9190910192915050565b601f82111561060f576000816000526020600020601f850160051c8101602086101561178c5750805b601f850160051c820191505b81811015610fe757828155600101611798565b815167ffffffffffffffff8111156117c5576117c561149c565b6117d9816117d3845461170d565b84611763565b602080601f83116001811461180e57600084156117f65750858301515b600019600386901b1c1916600185901b178555610fe7565b600085815260208120601f198616915b8281101561183d5788860151825594840194600190910190840161181e565b508582101561185b5787850151600019600388901b60f8161c191681555b5050505050600190811b01905550565b60008084546118798161170d565b6001828116801561189157600181146118a6576118d5565b60ff19841687528215158302870194506118d5565b8860005260208060002060005b858110156118cc5781548a8201529084019082016118b3565b50505082870194505b5050505083516118e98183602088016113da565b01949350505050565b6001600160a01b0385811682528416602082015260408101839052608060608201819052600090611925908301846113fe565b9695505050505050565b60006020828403121561194157600080fd5b815161055d816113a756fea2646970667358221220e15497978eb0768d0e8b44a6ce1122e47d85b33c0ed1bb07c706f0f2dbd0495464736f6c63430008180033","linkReferences":{}},"methodIdentifiers":{"approve(address,uint256)":"095ea7b3","balanceOf(address)":"70a08231","baseURI()":"6c0360eb","burn(string)":"dafa1d2d","controller()":"f77c4791","getApproved(uint256)":"081812fc","getOwnerByTokenId(uint256)":"98e7f04c","getOwnerByUsername(string)":"1c91cd38","getTokenIdByAddress(address)":"8cbab7e4","getTokenIdByUsername(string)":"1833eaa1","getUsernameByAddress(address)":"ed1a998d","getUsernameByTokenId(uint256)":"c0cfa0dc","isApprovedForAll(address,address)":"e985e9c5","mint(address,string)":"d0def521","name()":"06fdde03","owner()":"8da5cb5b","ownerOf(uint256)":"6352211e","renounceOwnership()":"715018a6","safeTransferFrom(address,address,uint256)":"42842e0e","safeTransferFrom(address,address,uint256,bytes)":"b88d4fde","setApprovalForAll(address,bool)":"a22cb465","setBaseURI(string)":"55f804b3","setController(address)":"92eefe9b","supportsInterface(bytes4)":"01ffc9a7","symbol()":"95d89b41","tokenURI(uint256)":"c87b56dd","transferFrom(address,address,uint256)":"23b872dd","transferOwnership(address)":"f2fde38b"},"id":42}