{
  "_format": "hh-sol-artifact-1",
  "contractName": "UniversalResolver",
  "sourceName": "contracts/gitid/UniversalResolver.sol",
  "abi": [
    {
      "inputs": [
        {
          "internalType": "contract GitID",
          "name": "_gitID",
          "type": "address"
        }
      ],
      "stateMutability": "nonpayable",
      "type": "constructor"
    },
    {
      "inputs": [
        {
          "internalType": "string",
          "name": "username",
          "type": "string"
        }
      ],
      "name": "_resolveSingle",
      "outputs": [
        {
          "internalType": "address",
          "name": "",
          "type": "address"
        }
      ],
      "stateMutability": "view",
      "type": "function"
    },
    {
      "inputs": [
        {
          "internalType": "address",
          "name": "userAddress",
          "type": "address"
        }
      ],
      "name": "getGitHubUserName",
      "outputs": [
        {
          "internalType": "string",
          "name": "",
          "type": "string"
        }
      ],
      "stateMutability": "view",
      "type": "function"
    },
    {
      "inputs": [
        {
          "internalType": "string",
          "name": "username",
          "type": "string"
        }
      ],
      "name": "resolve",
      "outputs": [
        {
          "internalType": "address",
          "name": "",
          "type": "address"
        }
      ],
      "stateMutability": "view",
      "type": "function"
    }
  ],
  "bytecode": "0x608060405234801561001057600080fd5b506040516107c73803806107c783398101604081905261002f91610054565b600080546001600160a01b0319166001600160a01b0392909216919091179055610084565b60006020828403121561006657600080fd5b81516001600160a01b038116811461007d57600080fd5b9392505050565b610734806100936000396000f3fe608060405234801561001057600080fd5b50600436106100415760003560e01c80630112f82214610046578063461a447814610083578063c88cae0c14610096575b600080fd5b610059610054366004610458565b6100b6565b60405173ffffffffffffffffffffffffffffffffffffffff90911681526020015b60405180910390f35b610059610091366004610458565b6101ec565b6100a96100a43660046104ef565b6101ff565b60405161007a9190610530565b600080546040517f1e7663bc000000000000000000000000000000000000000000000000000000008152829173ffffffffffffffffffffffffffffffffffffffff1690631e7663bc9061010f9087908790600401610581565b602060405180830381865afa15801561012c573d6000803e3d6000fd5b505050506040513d601f19601f8201168201806040525081019061015091906105ce565b6000546040517f6352211e0000000000000000000000000000000000000000000000000000000081526004810183905291925073ffffffffffffffffffffffffffffffffffffffff1690636352211e90602401602060405180830381865afa1580156101c0573d6000803e3d6000fd5b505050506040513d601f19601f820116820180604052508101906101e491906105e7565b949350505050565b60006101f883836100b6565b9392505050565b600080546040517f70a0823100000000000000000000000000000000000000000000000000000000815273ffffffffffffffffffffffffffffffffffffffff84811660048301526060939216906370a0823190602401602060405180830381865afa158015610272573d6000803e3d6000fd5b505050506040513d601f19601f8201168201806040525081019061029691906105ce565b905060008111610306576040517f08c379a000000000000000000000000000000000000000000000000000000000815260206004820152600d60248201527f55534552204e4f20474954494400000000000000000000000000000000000000604482015260640160405180910390fd5b600080546040517f2f745c5900000000000000000000000000000000000000000000000000000000815273ffffffffffffffffffffffffffffffffffffffff86811660048301526024820184905290911690632f745c5990604401602060405180830381865afa15801561037e573d6000803e3d6000fd5b505050506040513d601f19601f820116820180604052508101906103a291906105ce565b6000546040517f6b8ff5740000000000000000000000000000000000000000000000000000000081526004810183905291925073ffffffffffffffffffffffffffffffffffffffff1690636b8ff57490602401600060405180830381865afa158015610412573d6000803e3d6000fd5b505050506040513d6000823e601f3d9081017fffffffffffffffffffffffffffffffffffffffffffffffffffffffffffffffe01682016040526101e49190810190610633565b6000806020838503121561046b57600080fd5b823567ffffffffffffffff8082111561048357600080fd5b818501915085601f83011261049757600080fd5b8135818111156104a657600080fd5b8660208285010111156104b857600080fd5b60209290920196919550909350505050565b73ffffffffffffffffffffffffffffffffffffffff811681146104ec57600080fd5b50565b60006020828403121561050157600080fd5b81356101f8816104ca565b60005b8381101561052757818101518382015260200161050f565b50506000910152565b602081526000825180602084015261054f81604085016020870161050c565b601f017fffffffffffffffffffffffffffffffffffffffffffffffffffffffffffffffe0169190910160400192915050565b60208152816020820152818360408301376000818301604090810191909152601f9092017fffffffffffffffffffffffffffffffffffffffffffffffffffffffffffffffe0160101919050565b6000602082840312156105e057600080fd5b5051919050565b6000602082840312156105f957600080fd5b81516101f8816104ca565b7f4e487b7100000000000000000000000000000000000000000000000000000000600052604160045260246000fd5b60006020828403121561064557600080fd5b815167ffffffffffffffff8082111561065d57600080fd5b818401915084601f83011261067157600080fd5b81518181111561068357610683610604565b604051601f82017fffffffffffffffffffffffffffffffffffffffffffffffffffffffffffffffe0908116603f011681019083821181831017156106c9576106c9610604565b816040528281528760208487010111156106e257600080fd5b6106f383602083016020880161050c565b97965050505050505056fea26469706673582212203aa6b0e34c6c90a78d7490615da3f6e3e792695bade3aa5019f764f928d3e39d64736f6c63430008140033",
  "linkReferences": {},
  "deployedLinkReferences": {}
}