{"abi":[{"type":"constructor","inputs":[{"name":"gitIdAddress_","type":"address","internalType":"address"},{"name":"signer_","type":"address","internalType":"address"},{"name":"price_","type":"uint256","internalType":"uint256"}],"stateMutability":"nonpayable"},{"type":"function","name":"getPrice","inputs":[],"outputs":[{"name":"","type":"uint256","internalType":"uint256"}],"stateMutability":"view"},{"type":"function","name":"mintGitID","inputs":[{"name":"to","type":"address","internalType":"address"},{"name":"username","type":"string","internalType":"string"},{"name":"isFree","type":"bool","internalType":"bool"},{"name":"deadline","type":"uint256","internalType":"uint256"},{"name":"signature","type":"bytes","internalType":"bytes"}],"outputs":[],"stateMutability":"payable"},{"type":"function","name":"nonces","inputs":[{"name":"owner","type":"address","internalType":"address"}],"outputs":[{"name":"","type":"uint256","internalType":"uint256"}],"stateMutability":"view"},{"type":"function","name":"owner","inputs":[],"outputs":[{"name":"","type":"address","internalType":"address"}],"stateMutability":"view"},{"type":"function","name":"renounceOwnership","inputs":[],"outputs":[],"stateMutability":"nonpayable"},{"type":"function","name":"setPrice","inputs":[{"name":"price_","type":"uint256","internalType":"uint256"}],"outputs":[],"stateMutability":"nonpayable"},{"type":"function","name":"setSigner","inputs":[{"name":"signer_","type":"address","internalType":"address"}],"outputs":[],"stateMutability":"nonpayable"},{"type":"function","name":"transferOwnership","inputs":[{"name":"newOwner","type":"address","internalType":"address"}],"outputs":[],"stateMutability":"nonpayable"},{"type":"function","name":"withdraw","inputs":[],"outputs":[],"stateMutability":"nonpayable"},{"type":"event","name":"OwnershipTransferred","inputs":[{"name":"previousOwner","type":"address","indexed":true,"internalType":"address"},{"name":"newOwner","type":"address","indexed":true,"internalType":"address"}],"anonymous":false},{"type":"event","name":"UserMinted","inputs":[{"name":"user","type":"address","indexed":true,"internalType":"address"},{"name":"pricePaid","type":"uint256","indexed":false,"internalType":"uint256"},{"name":"username","type":"string","indexed":false,"internalType":"string"}],"anonymous":false},{"type":"error","name":"ECDSAInvalidSignature","inputs":[]},{"type":"error","name":"ECDSAInvalidSignatureLength","inputs":[{"name":"length","type":"uint256","internalType":"uint256"}]},{"type":"error","name":"ECDSAInvalidSignatureS","inputs":[{"name":"s","type":"bytes32","internalType":"bytes32"}]},{"type":"error","name":"InvalidAccountNonce","inputs":[{"name":"account","type":"address","internalType":"address"},{"name":"currentNonce","type":"uint256","internalType":"uint256"}]},{"type":"error","name":"OwnableInvalidOwner","inputs":[{"name":"owner","type":"address","internalType":"address"}]},{"type":"error","name":"OwnableUnauthorizedAccount","inputs":[{"name":"account","type":"address","internalType":"address"}]}],"bytecode":{"object":"0x60a060405234801561001057600080fd5b50604051610bcb380380610bcb83398101604081905261002f91610107565b338061005557604051631e4fbdf760e01b81526000600482015260240160405180910390fd5b61005e8161009b565b50600280546001600160a01b039485166001600160a01b031991821617909155600380549390941692169190911790915546608052600455610143565b600080546001600160a01b038381166001600160a01b0319831681178455604051919092169283917f8be0079c531659141344cd1fd0a4f28419497f9722a3daafe3b4186f6b6457e09190a35050565b80516001600160a01b038116811461010257600080fd5b919050565b60008060006060848603121561011c57600080fd5b610125846100eb565b9250610133602085016100eb565b9150604084015190509250925092565b608051610a6d61015e60003960006102020152610a6d6000f3fe6080604052600436106100865760003560e01c80637ecebe00116100595780637ecebe00146100ea5780638da5cb5b1461013357806391b7f5ed1461015b57806398d5fdca1461017b578063f2fde38b1461019057600080fd5b806319eafcaf1461008b5780633ccfd60b146100a05780636c19e783146100b5578063715018a6146100d5575b600080fd5b61009e61009936600461084e565b6101b0565b005b3480156100ac57600080fd5b5061009e61039a565b3480156100c157600080fd5b5061009e6100d03660046108fd565b6103df565b3480156100e157600080fd5b5061009e610409565b3480156100f657600080fd5b506101206101053660046108fd565b6001600160a01b031660009081526001602052604090205490565b6040519081526020015b60405180910390f35b34801561013f57600080fd5b506000546040516001600160a01b03909116815260200161012a565b34801561016757600080fd5b5061009e610176366004610918565b61041d565b34801561018757600080fd5b50600454610120565b34801561019c57600080fd5b5061009e6101ab3660046108fd565b61042a565b428210156101f95760405162461bcd60e51b815260206004820152601160248201527045787069726564207369676e617475726560781b60448201526064015b60405180910390fd5b61024f858585857f00000000000000000000000000000000000000000000000000000000000000006102498b6001600160a01b031660009081526001602081905260409091208054918201905590565b87610465565b6102a55760405162461bcd60e51b815260206004820152602160248201527f496e76616c6964206f7220756e617574686f72697a6564207369676e617475726044820152606560f81b60648201526084016101f0565b826102ec576004543410156102ec5760405162461bcd60e51b815260206004820152600d60248201526c496e76616c696420707269636560981b60448201526064016101f0565b60025460405163d0def52160e01b81526001600160a01b039091169063d0def5219061031e9088908890600401610981565b600060405180830381600087803b15801561033857600080fd5b505af115801561034c573d6000803e3d6000fd5b50505050846001600160a01b03167f1127f8137cb4f4a31cd6f69f3a4d6346e38adcbff865bf7b2bb688ef26214188348660405161038b9291906109ad565b60405180910390a25050505050565b6103a26104ff565b600080546040516001600160a01b03909116914780156108fc02929091818181858888f193505050501580156103dc573d6000803e3d6000fd5b50565b6103e76104ff565b600380546001600160a01b0319166001600160a01b0392909216919091179055565b6104116104ff565b61041b600061052c565b565b6104256104ff565b600455565b6104326104ff565b6001600160a01b03811661045c57604051631e4fbdf760e01b8152600060048201526024016101f0565b6103dc8161052c565b600080888888888888604051602001610483969594939291906109c6565b60405160208183030381529060405280519060200120905060006104d4827f19457468657265756d205369676e6564204d6573736167653a0a3332000000006000908152601c91909152603c902090565b90506104e0818561057c565b6003546001600160a01b039182169116149a9950505050505050505050565b6000546001600160a01b0316331461041b5760405163118cdaa760e01b81523360048201526024016101f0565b600080546001600160a01b038381166001600160a01b0319831681178455604051919092169283917f8be0079c531659141344cd1fd0a4f28419497f9722a3daafe3b4186f6b6457e09190a35050565b60008060008061058c86866105a6565b92509250925061059c82826105f3565b5090949350505050565b600080600083516041036105e05760208401516040850151606086015160001a6105d2888285856106b0565b9550955095505050506105ec565b50508151600091506002905b9250925092565b600082600381111561060757610607610a21565b03610610575050565b600182600381111561062457610624610a21565b036106425760405163f645eedf60e01b815260040160405180910390fd5b600282600381111561065657610656610a21565b036106775760405163fce698f760e01b8152600481018290526024016101f0565b600382600381111561068b5761068b610a21565b036106ac576040516335e2f38360e21b8152600481018290526024016101f0565b5050565b600080807f7fffffffffffffffffffffffffffffff5d576e7357a4501ddfe92f46681b20a08411156106eb5750600091506003905082610775565b604080516000808252602082018084528a905260ff891692820192909252606081018790526080810186905260019060a0016020604051602081039080840390855afa15801561073f573d6000803e3d6000fd5b5050604051601f1901519150506001600160a01b03811661076b57506000925060019150829050610775565b9250600091508190505b9450945094915050565b80356001600160a01b038116811461079657600080fd5b919050565b634e487b7160e01b600052604160045260246000fd5b600067ffffffffffffffff808411156107cc576107cc61079b565b604051601f8501601f19908116603f011681019082821181831017156107f4576107f461079b565b8160405280935085815286868601111561080d57600080fd5b858560208301376000602087830101525050509392505050565b600082601f83011261083857600080fd5b610847838335602085016107b1565b9392505050565b600080600080600060a0868803121561086657600080fd5b61086f8661077f565b9450602086013567ffffffffffffffff8082111561088c57600080fd5b818801915088601f8301126108a057600080fd5b6108af898335602085016107b1565b95506040880135915081151582146108c657600080fd5b90935060608701359250608087013590808211156108e357600080fd5b506108f088828901610827565b9150509295509295909350565b60006020828403121561090f57600080fd5b6108478261077f565b60006020828403121561092a57600080fd5b5035919050565b60005b8381101561094c578181015183820152602001610934565b50506000910152565b6000815180845261096d816020860160208601610931565b601f01601f19169290920160200192915050565b6001600160a01b03831681526040602082018190526000906109a590830184610955565b949350505050565b8281526040602082015260006109a56040830184610955565b6bffffffffffffffffffffffff198760601b168152600086516109f0816014850160208b01610931565b95151560f81b9190950160148101919091526015810193909352603583019190915260558201526075019392505050565b634e487b7160e01b600052602160045260246000fdfea2646970667358221220d898d2bff08454624c5d1d3ff4fab2bebbef314ba88bf4d353d3aaded911324e64736f6c63430008180033","linkReferences":{}},"methodIdentifiers":{"getPrice()":"98d5fdca","mintGitID(address,string,bool,uint256,bytes)":"19eafcaf","nonces(address)":"7ecebe00","owner()":"8da5cb5b","renounceOwnership()":"715018a6","setPrice(uint256)":"91b7f5ed","setSigner(address)":"6c19e783","transferOwnership(address)":"f2fde38b","withdraw()":"3ccfd60b"},"id":41}