{"abi":[{"type":"constructor","inputs":[{"name":"gitIDAddress","type":"address","internalType":"address"},{"name":"signerAddress","type":"address","internalType":"address"}],"stateMutability":"nonpayable"},{"type":"function","name":"getMessageHash","inputs":[{"name":"githubUsername","type":"string","internalType":"string"},{"name":"user","type":"address","internalType":"address"},{"name":"expireAt","type":"uint256","internalType":"uint256"},{"name":"chainId","type":"uint256","internalType":"uint256"},{"name":"isFree","type":"uint8","internalType":"uint8"}],"outputs":[{"name":"","type":"bytes32","internalType":"bytes32"}],"stateMutability":"pure"},{"type":"function","name":"gitID","inputs":[],"outputs":[{"name":"","type":"address","internalType":"contract GitID"}],"stateMutability":"view"},{"type":"function","name":"mint","inputs":[{"name":"githubUsername","type":"string","internalType":"string"},{"name":"user","type":"address","internalType":"address"},{"name":"expireAt","type":"uint256","internalType":"uint256"},{"name":"chainId","type":"uint256","internalType":"uint256"},{"name":"isFree","type":"uint8","internalType":"uint8"},{"name":"signature","type":"bytes","internalType":"bytes"}],"outputs":[],"stateMutability":"payable"},{"type":"function","name":"mintFee","inputs":[],"outputs":[{"name":"","type":"uint256","internalType":"uint256"}],"stateMutability":"view"},{"type":"function","name":"nonces","inputs":[{"name":"owner","type":"address","internalType":"address"}],"outputs":[{"name":"","type":"uint256","internalType":"uint256"}],"stateMutability":"view"},{"type":"function","name":"owner","inputs":[],"outputs":[{"name":"","type":"address","internalType":"address"}],"stateMutability":"view"},{"type":"function","name":"renounceOwnership","inputs":[],"outputs":[],"stateMutability":"nonpayable"},{"type":"function","name":"setMintFee","inputs":[{"name":"newFee","type":"uint256","internalType":"uint256"}],"outputs":[],"stateMutability":"nonpayable"},{"type":"function","name":"setSigner","inputs":[{"name":"newSigner","type":"address","internalType":"address"}],"outputs":[],"stateMutability":"nonpayable"},{"type":"function","name":"signer","inputs":[],"outputs":[{"name":"","type":"address","internalType":"address"}],"stateMutability":"view"},{"type":"function","name":"transferOwnership","inputs":[{"name":"newOwner","type":"address","internalType":"address"}],"outputs":[],"stateMutability":"nonpayable"},{"type":"function","name":"verify","inputs":[{"name":"hash","type":"bytes32","internalType":"bytes32"},{"name":"signature","type":"bytes","internalType":"bytes"}],"outputs":[{"name":"","type":"bool","internalType":"bool"}],"stateMutability":"view"},{"type":"function","name":"withdraw","inputs":[],"outputs":[],"stateMutability":"nonpayable"},{"type":"event","name":"MintFeeChanged","inputs":[{"name":"oldFee","type":"uint256","indexed":false,"internalType":"uint256"},{"name":"newFee","type":"uint256","indexed":false,"internalType":"uint256"}],"anonymous":false},{"type":"event","name":"OwnershipTransferred","inputs":[{"name":"previousOwner","type":"address","indexed":true,"internalType":"address"},{"name":"newOwner","type":"address","indexed":true,"internalType":"address"}],"anonymous":false},{"type":"event","name":"SignerChanged","inputs":[{"name":"oldSigner","type":"address","indexed":true,"internalType":"address"},{"name":"newSigner","type":"address","indexed":true,"internalType":"address"}],"anonymous":false},{"type":"error","name":"ECDSAInvalidSignature","inputs":[]},{"type":"error","name":"ECDSAInvalidSignatureLength","inputs":[{"name":"length","type":"uint256","internalType":"uint256"}]},{"type":"error","name":"ECDSAInvalidSignatureS","inputs":[{"name":"s","type":"bytes32","internalType":"bytes32"}]},{"type":"error","name":"InvalidAccountNonce","inputs":[{"name":"account","type":"address","internalType":"address"},{"name":"currentNonce","type":"uint256","internalType":"uint256"}]},{"type":"error","name":"OwnableInvalidOwner","inputs":[{"name":"owner","type":"address","internalType":"address"}]},{"type":"error","name":"OwnableUnauthorizedAccount","inputs":[{"name":"account","type":"address","internalType":"address"}]}],"bytecode":{"object":"0x60a060405234801561001057600080fd5b50604051610dae380380610dae83398101604081905261002f91610107565b338061005557604051631e4fbdf760e01b81526000600482015260240160405180910390fd5b61005e8161009b565b50600280546001600160a01b039384166001600160a01b0319918216179091556003805492909316911617905566f523226980800060045561013a565b600080546001600160a01b038381166001600160a01b0319831681178455604051919092169283917f8be0079c531659141344cd1fd0a4f28419497f9722a3daafe3b4186f6b6457e09190a35050565b80516001600160a01b038116811461010257600080fd5b919050565b6000806040838503121561011a57600080fd5b610123836100eb565b9150610131602084016100eb565b90509250929050565b608051610c5961015560003960006103380152610c596000f3fe6080604052600436106100c25760003560e01c80636c19e7831161007f5780638da5cb5b116100595780638da5cb5b1461020d578063e63218221461022b578063eddd0d9c1461024b578063f2fde38b1461026b57600080fd5b80636c19e783146101a2578063715018a6146101c25780637ecebe00146101d757600080fd5b806313966db5146100c7578063238ac933146100f0578063258ae582146101285780633ccfd60b1461015857806344ab8c091461016f57806349becdb51461018f575b600080fd5b3480156100d357600080fd5b506100dd60045481565b6040519081526020015b60405180910390f35b3480156100fc57600080fd5b50600354610110906001600160a01b031681565b6040516001600160a01b0390911681526020016100e7565b34801561013457600080fd5b50610148610143366004610996565b61028b565b60405190151581526020016100e7565b34801561016457600080fd5b5061016d6102b5565b005b34801561017b57600080fd5b506100dd61018a366004610a0a565b6102fa565b61016d61019d366004610a7c565b610336565b3480156101ae57600080fd5b5061016d6101bd366004610b13565b61057d565b3480156101ce57600080fd5b5061016d6105d7565b3480156101e357600080fd5b506100dd6101f2366004610b13565b6001600160a01b031660009081526001602052604090205490565b34801561021957600080fd5b506000546001600160a01b0316610110565b34801561023757600080fd5b50600254610110906001600160a01b031681565b34801561025757600080fd5b5061016d610266366004610b35565b6105eb565b34801561027757600080fd5b5061016d610286366004610b13565b610638565b6003546000906001600160a01b03166102a48484610673565b6001600160a01b0316149392505050565b6102bd61069d565b600080546040516001600160a01b03909116914780156108fc02929091818181858888f193505050501580156102f7573d6000803e3d6000fd5b50565b60008585858585604051602001610315959493929190610b72565b60405160208183030381529060405280519060200120905095945050505050565b7f0000000000000000000000000000000000000000000000000000000000000000831461039c5760405162461bcd60e51b815260206004820152600f60248201526e125b9d985b1a590810da185a5b9259608a1b60448201526064015b60405180910390fd5b60006103ab87878787876102fa565b7f19457468657265756d205369676e6564204d6573736167653a0a3332000000006000908152601c829052603c9020909150428610156104215760405162461bcd60e51b815260206004820152601160248201527045787069726564207369676e617475726560781b6044820152606401610393565b61042b818461028b565b61046b5760405162461bcd60e51b8152602060048201526011602482015270496e76616c6964207369676e617475726560781b6044820152606401610393565b8360ff166001036104be5734156104b95760405162461bcd60e51b81526020600482015260126024820152714669727374206d696e74206973206672656560701b6044820152606401610393565b61050f565b600454341461050f5760405162461bcd60e51b815260206004820152601760248201527f4d696e742066656520697320302e3036392065746865720000000000000000006044820152606401610393565b60025460405163d0def52160e01b81526001600160a01b039091169063d0def52190610541908a908c90600401610bcb565b600060405180830381600087803b15801561055b57600080fd5b505af115801561056f573d6000803e3d6000fd5b505050505050505050505050565b61058561069d565b600380546001600160a01b038381166001600160a01b0319831681179093556040519116919082907feeb293e1f8f3a9db91ade748726387ed1352ca78f5430c5f06fe3d1e1ad5057990600090a35050565b6105df61069d565b6105e960006106ca565b565b6105f361069d565b600480549082905560408051828152602081018490527fd8f648a37e4afe1c401d97caaa06358d2e2725ac008214ce9f5497991e654396910160405180910390a15050565b61064061069d565b6001600160a01b03811661066a57604051631e4fbdf760e01b815260006004820152602401610393565b6102f7816106ca565b600080600080610683868661071a565b9250925092506106938282610767565b5090949350505050565b6000546001600160a01b031633146105e95760405163118cdaa760e01b8152336004820152602401610393565b600080546001600160a01b038381166001600160a01b0319831681178455604051919092169283917f8be0079c531659141344cd1fd0a4f28419497f9722a3daafe3b4186f6b6457e09190a35050565b600080600083516041036107545760208401516040850151606086015160001a61074688828585610824565b955095509550505050610760565b50508151600091506002905b9250925092565b600082600381111561077b5761077b610c0d565b03610784575050565b600182600381111561079857610798610c0d565b036107b65760405163f645eedf60e01b815260040160405180910390fd5b60028260038111156107ca576107ca610c0d565b036107eb5760405163fce698f760e01b815260048101829052602401610393565b60038260038111156107ff576107ff610c0d565b03610820576040516335e2f38360e21b815260048101829052602401610393565b5050565b600080807f7fffffffffffffffffffffffffffffff5d576e7357a4501ddfe92f46681b20a084111561085f57506000915060039050826108e9565b604080516000808252602082018084528a905260ff891692820192909252606081018790526080810186905260019060a0016020604051602081039080840390855afa1580156108b3573d6000803e3d6000fd5b5050604051601f1901519150506001600160a01b0381166108df575060009250600191508290506108e9565b9250600091508190505b9450945094915050565b634e487b7160e01b600052604160045260246000fd5b600082601f83011261091a57600080fd5b813567ffffffffffffffff80821115610935576109356108f3565b604051601f8301601f19908116603f0116810190828211818310171561095d5761095d6108f3565b8160405283815286602085880101111561097657600080fd5b836020870160208301376000602085830101528094505050505092915050565b600080604083850312156109a957600080fd5b82359150602083013567ffffffffffffffff8111156109c757600080fd5b6109d385828601610909565b9150509250929050565b80356001600160a01b03811681146109f457600080fd5b919050565b803560ff811681146109f457600080fd5b600080600080600060a08688031215610a2257600080fd5b853567ffffffffffffffff811115610a3957600080fd5b610a4588828901610909565b955050610a54602087016109dd565b93506040860135925060608601359150610a70608087016109f9565b90509295509295909350565b60008060008060008060c08789031215610a9557600080fd5b863567ffffffffffffffff80821115610aad57600080fd5b610ab98a838b01610909565b9750610ac760208a016109dd565b96506040890135955060608901359450610ae360808a016109f9565b935060a0890135915080821115610af957600080fd5b50610b0689828a01610909565b9150509295509295509295565b600060208284031215610b2557600080fd5b610b2e826109dd565b9392505050565b600060208284031215610b4757600080fd5b5035919050565b60005b83811015610b69578181015183820152602001610b51565b50506000910152565b60008651610b84818460208b01610b4e565b60609690961b6bffffffffffffffffffffffff1916919095019081526014810193909352603483019190915260f81b6001600160f81b031916605482015260550192915050565b60018060a01b03831681526040602082015260008251806040840152610bf8816060850160208701610b4e565b601f01601f1916919091016060019392505050565b634e487b7160e01b600052602160045260246000fdfea2646970667358221220e9bbea9416d6364e88c18bda5089112a85fa3fcf59f3e0f54cc42b4d1b11696264736f6c63430008180033","linkReferences":{}},"methodIdentifiers":{"getMessageHash(string,address,uint256,uint256,uint8)":"44ab8c09","gitID()":"e6321822","mint(string,address,uint256,uint256,uint8,bytes)":"49becdb5","mintFee()":"13966db5","nonces(address)":"7ecebe00","owner()":"8da5cb5b","renounceOwnership()":"715018a6","setMintFee(uint256)":"eddd0d9c","setSigner(address)":"6c19e783","signer()":"238ac933","transferOwnership(address)":"f2fde38b","verify(bytes32,bytes)":"258ae582","withdraw()":"3ccfd60b"},"id":42}